{
  "contractName": "AddrTable",
  "abi": [
    {
      "inputs": [
        {
          "internalType": "address",
          "name": "_admin",
          "type": "address"
        }
      ],
      "stateMutability": "nonpayable",
      "type": "constructor"
    },
    {
      "anonymous": false,
      "inputs": [
        {
          "indexed": true,
          "internalType": "address",
          "name": "addr",
          "type": "address"
        },
        {
          "indexed": true,
          "internalType": "uint256",
          "name": "githubId",
          "type": "uint256"
        }
      ],
      "name": "NewRecord",
      "type": "event"
    },
    {
      "inputs": [
        {
          "internalType": "uint256",
          "name": "githubId",
          "type": "uint256"
        },
        {
          "internalType": "uint8",
          "name": "v",
          "type": "uint8"
        },
        {
          "internalType": "bytes32",
          "name": "r",
          "type": "bytes32"
        },
        {
          "internalType": "bytes32",
          "name": "s",
          "type": "bytes32"
        }
      ],
      "name": "addRecord",
      "outputs": [],
      "stateMutability": "nonpayable",
      "type": "function"
    }
  ],
  "bytecode": "0x608060405234801561001057600080fd5b506040516104f23803806104f28339818101604052810190610032919061008d565b806000806101000a81548173ffffffffffffffffffffffffffffffffffffffff021916908373ffffffffffffffffffffffffffffffffffffffff16021790555050610108565b600081519050610087816100f1565b92915050565b6000602082840312156100a3576100a26100ec565b5b60006100b184828501610078565b91505092915050565b60006100c5826100cc565b9050919050565b600073ffffffffffffffffffffffffffffffffffffffff82169050919050565b600080fd5b6100fa816100ba565b811461010557600080fd5b50565b6103db806101176000396000f3fe608060405234801561001057600080fd5b506004361061002b5760003560e01c8063213579cf14610030575b600080fd5b61004a600480360381019061004591906101a9565b61004c565b005b6000338560405160200161006192919061025c565b6040516020818303038152906040528051906020012090506001818585856040516000815260200160405260405161009c9493929190610288565b6020604051602081039080840390855afa1580156100be573d6000803e3d6000fd5b5050506020604051035173ffffffffffffffffffffffffffffffffffffffff1660008054906101000a900473ffffffffffffffffffffffffffffffffffffffff1673ffffffffffffffffffffffffffffffffffffffff161461011f57600080fd5b843373ffffffffffffffffffffffffffffffffffffffff167faae60e31e02e72b4542a994da3162e41b1fea88ed072dabe428d89e960bbc56960405160405180910390a35050505050565b60008135905061017981610360565b92915050565b60008135905061018e81610377565b92915050565b6000813590506101a38161038e565b92915050565b600080600080608085870312156101c3576101c261034e565b5b60006101d18782880161017f565b94505060206101e287828801610194565b93505060406101f38782880161016a565b92505060606102048782880161016a565b91505092959194509250565b61022161021c826102cd565b610320565b82525050565b610230816102df565b82525050565b61024761024282610309565b610344565b82525050565b61025681610313565b82525050565b60006102688285610210565b6014820191506102788284610236565b6020820191508190509392505050565b600060808201905061029d6000830187610227565b6102aa602083018661024d565b6102b76040830185610227565b6102c46060830184610227565b95945050505050565b60006102d8826102e9565b9050919050565b6000819050919050565b600073ffffffffffffffffffffffffffffffffffffffff82169050919050565b6000819050919050565b600060ff82169050919050565b600061032b82610332565b9050919050565b600061033d82610353565b9050919050565b6000819050919050565b600080fd5b60008160601b9050919050565b610369816102df565b811461037457600080fd5b50565b61038081610309565b811461038b57600080fd5b50565b61039781610313565b81146103a257600080fd5b5056fea2646970667358221220278ce146fe5e08f0fb1694ca660f6680bf8346c5005ca9384625e8ddb70826e964736f6c63430008060033",
  "immutableReferences": {},
  "source": "// SPDX-License-Identifier: MIT\npragma solidity ^0.8.0;\n\ncontract AddrTable {\n  event NewRecord(address indexed addr, uint256 indexed githubId);\n\n  address admin;\n\n  constructor(address _admin){\n    admin = _admin;\n  }\n  function addRecord(uint256 githubId, uint8 v, bytes32 r, bytes32 s) public {\n    bytes32 msgHash = keccak256(abi.encodePacked(msg.sender, githubId));\n    require(admin == ecrecover(msgHash, v, r, s));\n\n    emit NewRecord(msg.sender, githubId);\n  }\n}\n",
  "sourcePath": "/home/apoorv/projects/venlo/core/contracts/AddrTable.sol",
  "compiler": {
    "name": "solc",
    "version": "0.8.6+commit.11564f7e.Emscripten.clang"
  },
  "schemaVersion": "3.4.3",
  "updatedAt": "2022-05-09T21:31:55.165Z",
  "devdoc": {
    "kind": "dev",
    "methods": {},
    "version": 1
  },
  "userdoc": {
    "kind": "user",
    "methods": {},
    "version": 1
  }
}