{
  "contractName": "CreatorTokenFactory",
  "abi": [
    {
      "inputs": [
        {
          "internalType": "contract IERC20",
          "name": "_parent_token",
          "type": "address"
        }
      ],
      "stateMutability": "nonpayable",
      "type": "constructor"
    },
    {
      "anonymous": false,
      "inputs": [
        {
          "indexed": true,
          "internalType": "address",
          "name": "token",
          "type": "address"
        },
        {
          "indexed": true,
          "internalType": "address",
          "name": "creator",
          "type": "address"
        }
      ],
      "name": "CreatorTokenCreate",
      "type": "event"
    },
    {
      "inputs": [
        {
          "internalType": "string",
          "name": "_name",
          "type": "string"
        },
        {
          "internalType": "string",
          "name": "_symbol",
          "type": "string"
        }
      ],
      "name": "createToken",
      "outputs": [
        {
          "internalType": "contract CreatorToken",
          "name": "",
          "type": "address"
        }
      ],
      "stateMutability": "nonpayable",
      "type": "function"
    }
  ],
  "bytecode": "0x608060405234801561001057600080fd5b5060405161377738038061377783398181016040528101906100329190610103565b806000806101000a81548173ffffffffffffffffffffffffffffffffffffffff021916908373ffffffffffffffffffffffffffffffffffffffff16021790555060405161007e906100e1565b604051809103906000f08015801561009a573d6000803e3d6000fd5b50600160006101000a81548173ffffffffffffffffffffffffffffffffffffffff021916908373ffffffffffffffffffffffffffffffffffffffff16021790555050610190565b612ee18061089683390190565b6000815190506100fd81610179565b92915050565b60006020828403121561011957610118610174565b5b6000610127848285016100ee565b91505092915050565b600061013b82610154565b9050919050565b600061014d82610130565b9050919050565b600073ffffffffffffffffffffffffffffffffffffffff82169050919050565b600080fd5b61018281610142565b811461018d57600080fd5b50565b6106f78061019f6000396000f3fe608060405234801561001057600080fd5b506004361061002b5760003560e01c80632f2f2d5614610030575b600080fd5b61004a60048036038101906100459190610349565b610060565b6040516100579190610465565b60405180910390f35b60008061008e600160009054906101000a900473ffffffffffffffffffffffffffffffffffffffff166101fc565b90508073ffffffffffffffffffffffffffffffffffffffff1663077f224a858560008054906101000a900473ffffffffffffffffffffffffffffffffffffffff166040518463ffffffff1660e01b81526004016100ed93929190610480565b600060405180830381600087803b15801561010757600080fd5b505af115801561011b573d6000803e3d6000fd5b505050508073ffffffffffffffffffffffffffffffffffffffff1663f2fde38b6101436102d1565b6040518263ffffffff1660e01b815260040161015f919061044a565b600060405180830381600087803b15801561017957600080fd5b505af115801561018d573d6000803e3d6000fd5b505050506101996102d1565b73ffffffffffffffffffffffffffffffffffffffff168173ffffffffffffffffffffffffffffffffffffffff167f9a0668f81140c61f392e211e265820a51d6d580e1b47f51704e1b969763e834660405160405180910390a38091505092915050565b60006040517f3d602d80600a3d3981f3363d3d373d3d3d363d7300000000000000000000000081528260601b60148201527f5af43d82803e903d91602b57fd5bf3000000000000000000000000000000000060288201526037816000f0915050600073ffffffffffffffffffffffffffffffffffffffff168173ffffffffffffffffffffffffffffffffffffffff1614156102cc576040517f08c379a00000000000000000000000000000000000000000000000000000000081526004016102c3906104c5565b60405180910390fd5b919050565b600033905090565b60006102ec6102e78461050a565b6104e5565b90508281526020810184848401111561030857610307610678565b5b6103138482856105d1565b509392505050565b600082601f8301126103305761032f610673565b5b81356103408482602086016102d9565b91505092915050565b600080604083850312156103605761035f610682565b5b600083013567ffffffffffffffff81111561037e5761037d61067d565b5b61038a8582860161031b565b925050602083013567ffffffffffffffff8111156103ab576103aa61067d565b5b6103b78582860161031b565b9150509250929050565b6103ca81610557565b82525050565b6103d981610589565b82525050565b6103e8816105ad565b82525050565b60006103f98261053b565b6104038185610546565b93506104138185602086016105e0565b61041c81610687565b840191505092915050565b6000610434601683610546565b915061043f82610698565b602082019050919050565b600060208201905061045f60008301846103c1565b92915050565b600060208201905061047a60008301846103d0565b92915050565b6000606082019050818103600083015261049a81866103ee565b905081810360208301526104ae81856103ee565b90506104bd60408301846103df565b949350505050565b600060208201905081810360008301526104de81610427565b9050919050565b60006104ef610500565b90506104fb8282610613565b919050565b6000604051905090565b600067ffffffffffffffff82111561052557610524610644565b5b61052e82610687565b9050602081019050919050565b600081519050919050565b600082825260208201905092915050565b600061056282610569565b9050919050565b600073ffffffffffffffffffffffffffffffffffffffff82169050919050565b60006105948261059b565b9050919050565b60006105a682610569565b9050919050565b60006105b8826105bf565b9050919050565b60006105ca82610569565b9050919050565b82818337600083830152505050565b60005b838110156105fe5780820151818401526020810190506105e3565b8381111561060d576000848401525b50505050565b61061c82610687565b810181811067ffffffffffffffff8211171561063b5761063a610644565b5b80604052505050565b7f4e487b7100000000000000000000000000000000000000000000000000000000600052604160045260246000fd5b600080fd5b600080fd5b600080fd5b600080fd5b6000601f19601f8301169050919050565b7f455243313136373a20637265617465206661696c65640000000000000000000060008201525056fea26469706673582212202d51a12095c7ce4affb2801ff118cc10117800bd05fc007237e5e180402ed74964736f6c63430008060033608060405234801561001057600080fd5b50612ec1806100206000396000f3fe608060405234801561001057600080fd5b50600436106101735760003560e01c8063636afa77116100de57806397e5081811610097578063a9059cbb11610071578063a9059cbb14610476578063db19f222146104a6578063dd62ed3e146104c2578063f2fde38b146104f257610173565b806397e50818146103fa578063a0712d6814610416578063a457c2d71461044657610173565b8063636afa771461033657806370a0823114610354578063715018a61461038457806388ed147c1461038e5780638da5cb5b146103be57806395d89b41146103dc57610173565b806318160ddd1161013057806318160ddd1461024c57806323b872dd1461026a578063313ce5671461029a578063359fb633146102b857806339509351146102d657806342966c681461030657610173565b806301ce12041461017857806306fdde0314610194578063077f224a146101b2578063095ea7b3146101ce5780630c509436146101fe578063174f57af1461022e575b600080fd5b610192600480360381019061018d9190611f58565b61050e565b005b61019c6105d9565b6040516101a99190612350565b60405180910390f35b6101cc60048036038101906101c79190611ecd565b61066b565b005b6101e860048036038101906101e39190611e60565b6107ba565b6040516101f59190612335565b60405180910390f35b61021860048036038101906102139190611f58565b6107dd565b6040516102259190612592565b60405180910390f35b61023661080b565b6040516102439190612592565b60405180910390f35b610254610815565b6040516102619190612592565b60405180910390f35b610284600480360381019061027f9190611e0d565b61081f565b6040516102919190612335565b60405180910390f35b6102a26108e0565b6040516102af91906125ad565b60405180910390f35b6102c06108e9565b6040516102cd9190612592565b60405180910390f35b6102f060048036038101906102eb9190611e60565b6108f3565b6040516102fd9190612335565b60405180910390f35b610320600480360381019061031b9190611f58565b61099d565b60405161032d9190612335565b60405180910390f35b61033e610a3c565b60405161034b91906122ba565b60405180910390f35b61036e60048036038101906103699190611da0565b610a66565b60405161037b9190612592565b60405180910390f35b61038c610aaf565b005b6103a860048036038101906103a39190611f58565b610b37565b6040516103b59190612592565b60405180910390f35b6103c6610b65565b6040516103d391906122ba565b60405180910390f35b6103e4610b8f565b6040516103f19190612350565b60405180910390f35b610414600480360381019061040f9190611fb2565b610c21565b005b610430600480360381019061042b9190611f58565b610cb3565b60405161043d9190612335565b60405180910390f35b610460600480360381019061045b9190611e60565b610ebf565b60405161046d9190612335565b60405180910390f35b610490600480360381019061048b9190611e60565b610fa9565b60405161049d9190612335565b60405180910390f35b6104c060048036038101906104bb9190611f58565b61100a565b005b6104dc60048036038101906104d79190611dcd565b6110d5565b6040516104e99190612592565b60405180910390f35b61050c60048036038101906105079190611da0565b61115c565b005b610516611254565b73ffffffffffffffffffffffffffffffffffffffff16610534610b65565b73ffffffffffffffffffffffffffffffffffffffff161461058a576040517f08c379a000000000000000000000000000000000000000000000000000000000815260040161058190612492565b60405180910390fd5b6127108111156105cf576040517f08c379a00000000000000000000000000000000000000000000000000000000081526004016105c690612452565b60405180910390fd5b8060978190555050565b6060606880546105e8906127f8565b80601f0160208091040260200160405190810160405280929190818152602001828054610614906127f8565b80156106615780601f1061063657610100808354040283529160200191610661565b820191906000526020600020905b81548152906001019060200180831161064457829003601f168201915b5050505050905090565b600060019054906101000a900460ff166106935760008054906101000a900460ff161561069c565b61069b61125c565b5b6106db576040517f08c379a00000000000000000000000000000000000000000000000000000000081526004016106d290612432565b60405180910390fd5b60008060019054906101000a900460ff16159050801561072b576001600060016101000a81548160ff02191690831515021790555060016000806101000a81548160ff0219169083151502179055505b61073361126d565b61073d84846112c6565b81609960006101000a81548173ffffffffffffffffffffffffffffffffffffffff021916908373ffffffffffffffffffffffffffffffffffffffff16021790555061078961271061050e565b610793600061100a565b80156107b45760008060016101000a81548160ff0219169083151502179055505b50505050565b6000806107c5611254565b90506107d2818585611347565b600191505092915050565b60006107e7610815565b826107f0610815565b6107fa919061263a565b610804919061271b565b9050919050565b6000609754905090565b6000606754905090565b6000806127106098548461083391906126c1565b61083d9190612690565b905061085585858386610850919061271b565b611512565b61086785610861610b65565b83611512565b600061087a86610875611254565b6110d5565b9050838110156108bf576040517f08c379a00000000000000000000000000000000000000000000000000000000081526004016108b690612472565b60405180910390fd5b6108d3866108cb611254565b868403611347565b6001925050509392505050565b60006012905090565b6000609854905090565b6000806108fe611254565b9050610992818585606660008673ffffffffffffffffffffffffffffffffffffffff1673ffffffffffffffffffffffffffffffffffffffff16815260200190815260200160002060008973ffffffffffffffffffffffffffffffffffffffff1673ffffffffffffffffffffffffffffffffffffffff1681526020019081526020016000205461098d919061263a565b611347565b600191505092915050565b60006109b06109aa611254565b83611796565b6109b8611254565b73ffffffffffffffffffffffffffffffffffffffff166108fc6109da84610b37565b9081150290604051600060405180830381858888f19350505050610a33576040517f08c379a0000000000000000000000000000000000000000000000000000000008152600401610a2a90612512565b60405180910390fd5b60019050919050565b6000609960009054906101000a900473ffffffffffffffffffffffffffffffffffffffff16905090565b6000606560008373ffffffffffffffffffffffffffffffffffffffff1673ffffffffffffffffffffffffffffffffffffffff168152602001908152602001600020549050919050565b610ab7611254565b73ffffffffffffffffffffffffffffffffffffffff16610ad5610b65565b73ffffffffffffffffffffffffffffffffffffffff1614610b2b576040517f08c379a0000000000000000000000000000000000000000000000000000000008152600401610b2290612492565b60405180910390fd5b610b35600061196f565b565b6000610b41610815565b82610b4a610815565b610b54919061263a565b610b5e919061271b565b9050919050565b6000603360009054906101000a900473ffffffffffffffffffffffffffffffffffffffff16905090565b606060698054610b9e906127f8565b80601f0160208091040260200160405190810160405280929190818152602001828054610bca906127f8565b8015610c175780601f10610bec57610100808354040283529160200191610c17565b820191906000526020600020905b815481529060010190602001808311610bfa57829003601f168201915b5050505050905090565b610c29611254565b73ffffffffffffffffffffffffffffffffffffffff16610c47610b65565b73ffffffffffffffffffffffffffffffffffffffff1614610c9d576040517f08c379a0000000000000000000000000000000000000000000000000000000008152600401610c9490612492565b60405180910390fd5b610ca68261050e565b610caf8161100a565b5050565b60008082905080609960009054906101000a900473ffffffffffffffffffffffffffffffffffffffff1673ffffffffffffffffffffffffffffffffffffffff1663dd62ed3e610d00611254565b306040518363ffffffff1660e01b8152600401610d1e9291906122d5565b60206040518083038186803b158015610d3657600080fd5b505afa158015610d4a573d6000803e3d6000fd5b505050506040513d601f19601f82011682018060405250810190610d6e9190611f85565b1015610daf576040517f08c379a0000000000000000000000000000000000000000000000000000000008152600401610da6906123b2565b60405180910390fd5b609960009054906101000a900473ffffffffffffffffffffffffffffffffffffffff1673ffffffffffffffffffffffffffffffffffffffff166323b872dd610df5611254565b30846040518463ffffffff1660e01b8152600401610e15939291906122fe565b602060405180830381600087803b158015610e2f57600080fd5b505af1158015610e43573d6000803e3d6000fd5b505050506040513d601f19601f82011682018060405250810190610e679190611ea0565b50600061271060975485610e7b91906126c1565b610e859190612690565b9050610ea3610e92611254565b8286610e9e919061271b565b611a35565b610eb4610eae610b65565b82611a35565b600192505050919050565b600080610eca611254565b90506000606660008373ffffffffffffffffffffffffffffffffffffffff1673ffffffffffffffffffffffffffffffffffffffff16815260200190815260200160002060008673ffffffffffffffffffffffffffffffffffffffff1673ffffffffffffffffffffffffffffffffffffffff16815260200190815260200160002054905083811015610f90576040517f08c379a0000000000000000000000000000000000000000000000000000000008152600401610f8790612552565b60405180910390fd5b610f9d8286868403611347565b60019250505092915050565b60008061271060985484610fbd91906126c1565b610fc79190612690565b9050610fe6610fd4611254565b858386610fe1919061271b565b611512565b610fff610ff1611254565b610ff9610b65565b83611512565b600191505092915050565b611012611254565b73ffffffffffffffffffffffffffffffffffffffff16611030610b65565b73ffffffffffffffffffffffffffffffffffffffff1614611086576040517f08c379a000000000000000000000000000000000000000000000000000000000815260040161107d90612492565b60405180910390fd5b6127108111156110cb576040517f08c379a00000000000000000000000000000000000000000000000000000000081526004016110c290612452565b60405180910390fd5b8060988190555050565b6000606660008473ffffffffffffffffffffffffffffffffffffffff1673ffffffffffffffffffffffffffffffffffffffff16815260200190815260200160002060008373ffffffffffffffffffffffffffffffffffffffff1673ffffffffffffffffffffffffffffffffffffffff16815260200190815260200160002054905092915050565b611164611254565b73ffffffffffffffffffffffffffffffffffffffff16611182610b65565b73ffffffffffffffffffffffffffffffffffffffff16146111d8576040517f08c379a00000000000000000000000000000000000000000000000000000000081526004016111cf90612492565b60405180910390fd5b600073ffffffffffffffffffffffffffffffffffffffff168173ffffffffffffffffffffffffffffffffffffffff161415611248576040517f08c379a000000000000000000000000000000000000000000000000000000000815260040161123f906123d2565b60405180910390fd5b6112518161196f565b50565b600033905090565b600061126730611b96565b15905090565b600060019054906101000a900460ff166112bc576040517f08c379a00000000000000000000000000000000000000000000000000000000081526004016112b390612532565b60405180910390fd5b6112c4611bb9565b565b600060019054906101000a900460ff16611315576040517f08c379a000000000000000000000000000000000000000000000000000000000815260040161130c90612532565b60405180910390fd5b816068908051906020019061132b929190611c24565b508060699080519060200190611342929190611c24565b505050565b600073ffffffffffffffffffffffffffffffffffffffff168373ffffffffffffffffffffffffffffffffffffffff1614156113b7576040517f08c379a00000000000000000000000000000000000000000000000000000000081526004016113ae906124f2565b60405180910390fd5b600073ffffffffffffffffffffffffffffffffffffffff168273ffffffffffffffffffffffffffffffffffffffff161415611427576040517f08c379a000000000000000000000000000000000000000000000000000000000815260040161141e906123f2565b60405180910390fd5b80606660008573ffffffffffffffffffffffffffffffffffffffff1673ffffffffffffffffffffffffffffffffffffffff16815260200190815260200160002060008473ffffffffffffffffffffffffffffffffffffffff1673ffffffffffffffffffffffffffffffffffffffff168152602001908152602001600020819055508173ffffffffffffffffffffffffffffffffffffffff168373ffffffffffffffffffffffffffffffffffffffff167f8c5be1e5ebec7d5bd14f71427d1e84f3dd0314c0f7b2291e5b200ac8c7c3b925836040516115059190612592565b60405180910390a3505050565b600073ffffffffffffffffffffffffffffffffffffffff168373ffffffffffffffffffffffffffffffffffffffff161415611582576040517f08c379a0000000000000000000000000000000000000000000000000000000008152600401611579906124d2565b60405180910390fd5b600073ffffffffffffffffffffffffffffffffffffffff168273ffffffffffffffffffffffffffffffffffffffff1614156115f2576040517f08c379a00000000000000000000000000000000000000000000000000000000081526004016115e990612372565b60405180910390fd5b6115fd838383611c1a565b6000606560008573ffffffffffffffffffffffffffffffffffffffff1673ffffffffffffffffffffffffffffffffffffffff16815260200190815260200160002054905081811015611684576040517f08c379a000000000000000000000000000000000000000000000000000000000815260040161167b90612412565b60405180910390fd5b818103606560008673ffffffffffffffffffffffffffffffffffffffff1673ffffffffffffffffffffffffffffffffffffffff1681526020019081526020016000208190555081606560008573ffffffffffffffffffffffffffffffffffffffff1673ffffffffffffffffffffffffffffffffffffffff1681526020019081526020016000206000828254611719919061263a565b925050819055508273ffffffffffffffffffffffffffffffffffffffff168473ffffffffffffffffffffffffffffffffffffffff167fddf252ad1be2c89b69c2b068fc378daa952ba7f163c4a11628f55a4df523b3ef8460405161177d9190612592565b60405180910390a3611790848484611c1f565b50505050565b600073ffffffffffffffffffffffffffffffffffffffff168273ffffffffffffffffffffffffffffffffffffffff161415611806576040517f08c379a00000000000000000000000000000000000000000000000000000000081526004016117fd906124b2565b60405180910390fd5b61181282600083611c1a565b6000606560008473ffffffffffffffffffffffffffffffffffffffff1673ffffffffffffffffffffffffffffffffffffffff16815260200190815260200160002054905081811015611899576040517f08c379a000000000000000000000000000000000000000000000000000000000815260040161189090612392565b60405180910390fd5b818103606560008573ffffffffffffffffffffffffffffffffffffffff1673ffffffffffffffffffffffffffffffffffffffff1681526020019081526020016000208190555081606760008282546118f1919061271b565b92505081905550600073ffffffffffffffffffffffffffffffffffffffff168373ffffffffffffffffffffffffffffffffffffffff167fddf252ad1be2c89b69c2b068fc378daa952ba7f163c4a11628f55a4df523b3ef846040516119569190612592565b60405180910390a361196a83600084611c1f565b505050565b6000603360009054906101000a900473ffffffffffffffffffffffffffffffffffffffff16905081603360006101000a81548173ffffffffffffffffffffffffffffffffffffffff021916908373ffffffffffffffffffffffffffffffffffffffff1602179055508173ffffffffffffffffffffffffffffffffffffffff168173ffffffffffffffffffffffffffffffffffffffff167f8be0079c531659141344cd1fd0a4f28419497f9722a3daafe3b4186f6b6457e060405160405180910390a35050565b600073ffffffffffffffffffffffffffffffffffffffff168273ffffffffffffffffffffffffffffffffffffffff161415611aa5576040517f08c379a0000000000000000000000000000000000000000000000000000000008152600401611a9c90612572565b60405180910390fd5b611ab160008383611c1a565b8060676000828254611ac3919061263a565b9250508190555080606560008473ffffffffffffffffffffffffffffffffffffffff1673ffffffffffffffffffffffffffffffffffffffff1681526020019081526020016000206000828254611b19919061263a565b925050819055508173ffffffffffffffffffffffffffffffffffffffff16600073ffffffffffffffffffffffffffffffffffffffff167fddf252ad1be2c89b69c2b068fc378daa952ba7f163c4a11628f55a4df523b3ef83604051611b7e9190612592565b60405180910390a3611b9260008383611c1f565b5050565b6000808273ffffffffffffffffffffffffffffffffffffffff163b119050919050565b600060019054906101000a900460ff16611c08576040517f08c379a0000000000000000000000000000000000000000000000000000000008152600401611bff90612532565b60405180910390fd5b611c18611c13611254565b61196f565b565b505050565b505050565b828054611c30906127f8565b90600052602060002090601f016020900481019282611c525760008555611c99565b82601f10611c6b57805160ff1916838001178555611c99565b82800160010185558215611c99579182015b82811115611c98578251825591602001919060010190611c7d565b5b509050611ca69190611caa565b5090565b5b80821115611cc3576000816000905550600101611cab565b5090565b6000611cda611cd5846125ed565b6125c8565b905082815260208101848484011115611cf657611cf561291c565b5b611d018482856127b6565b509392505050565b600081359050611d1881612e2f565b92915050565b600081519050611d2d81612e46565b92915050565b600081359050611d4281612e5d565b92915050565b600082601f830112611d5d57611d5c612917565b5b8135611d6d848260208601611cc7565b91505092915050565b600081359050611d8581612e74565b92915050565b600081519050611d9a81612e74565b92915050565b600060208284031215611db657611db5612926565b5b6000611dc484828501611d09565b91505092915050565b60008060408385031215611de457611de3612926565b5b6000611df285828601611d09565b9250506020611e0385828601611d09565b9150509250929050565b600080600060608486031215611e2657611e25612926565b5b6000611e3486828701611d09565b9350506020611e4586828701611d09565b9250506040611e5686828701611d76565b9150509250925092565b60008060408385031215611e7757611e76612926565b5b6000611e8585828601611d09565b9250506020611e9685828601611d76565b9150509250929050565b600060208284031215611eb657611eb5612926565b5b6000611ec484828501611d1e565b91505092915050565b600080600060608486031215611ee657611ee5612926565b5b600084013567ffffffffffffffff811115611f0457611f03612921565b5b611f1086828701611d48565b935050602084013567ffffffffffffffff811115611f3157611f30612921565b5b611f3d86828701611d48565b9250506040611f4e86828701611d33565b9150509250925092565b600060208284031215611f6e57611f6d612926565b5b6000611f7c84828501611d76565b91505092915050565b600060208284031215611f9b57611f9a612926565b5b6000611fa984828501611d8b565b91505092915050565b60008060408385031215611fc957611fc8612926565b5b6000611fd785828601611d76565b9250506020611fe885828601611d76565b9150509250929050565b611ffb8161274f565b82525050565b61200a81612761565b82525050565b600061201b8261261e565b6120258185612629565b93506120358185602086016127c5565b61203e8161292b565b840191505092915050565b6000612056602383612629565b91506120618261293c565b604082019050919050565b6000612079602283612629565b91506120848261298b565b604082019050919050565b600061209c602d83612629565b91506120a7826129da565b604082019050919050565b60006120bf602683612629565b91506120ca82612a29565b604082019050919050565b60006120e2602283612629565b91506120ed82612a78565b604082019050919050565b6000612105602683612629565b915061211082612ac7565b604082019050919050565b6000612128602e83612629565b915061213382612b16565b604082019050919050565b600061214b602283612629565b915061215682612b65565b604082019050919050565b600061216e602883612629565b915061217982612bb4565b604082019050919050565b6000612191602083612629565b915061219c82612c03565b602082019050919050565b60006121b4602183612629565b91506121bf82612c2c565b604082019050919050565b60006121d7602583612629565b91506121e282612c7b565b604082019050919050565b60006121fa602483612629565b915061220582612cca565b604082019050919050565b600061221d602983612629565b915061222882612d19565b604082019050919050565b6000612240602b83612629565b915061224b82612d68565b604082019050919050565b6000612263602583612629565b915061226e82612db7565b604082019050919050565b6000612286601f83612629565b915061229182612e06565b602082019050919050565b6122a58161279f565b82525050565b6122b4816127a9565b82525050565b60006020820190506122cf6000830184611ff2565b92915050565b60006040820190506122ea6000830185611ff2565b6122f76020830184611ff2565b9392505050565b60006060820190506123136000830186611ff2565b6123206020830185611ff2565b61232d604083018461229c565b949350505050565b600060208201905061234a6000830184612001565b92915050565b6000602082019050818103600083015261236a8184612010565b905092915050565b6000602082019050818103600083015261238b81612049565b9050919050565b600060208201905081810360008301526123ab8161206c565b9050919050565b600060208201905081810360008301526123cb8161208f565b9050919050565b600060208201905081810360008301526123eb816120b2565b9050919050565b6000602082019050818103600083015261240b816120d5565b9050919050565b6000602082019050818103600083015261242b816120f8565b9050919050565b6000602082019050818103600083015261244b8161211b565b9050919050565b6000602082019050818103600083015261246b8161213e565b9050919050565b6000602082019050818103600083015261248b81612161565b9050919050565b600060208201905081810360008301526124ab81612184565b9050919050565b600060208201905081810360008301526124cb816121a7565b9050919050565b600060208201905081810360008301526124eb816121ca565b9050919050565b6000602082019050818103600083015261250b816121ed565b9050919050565b6000602082019050818103600083015261252b81612210565b9050919050565b6000602082019050818103600083015261254b81612233565b9050919050565b6000602082019050818103600083015261256b81612256565b9050919050565b6000602082019050818103600083015261258b81612279565b9050919050565b60006020820190506125a7600083018461229c565b92915050565b60006020820190506125c260008301846122ab565b92915050565b60006125d26125e3565b90506125de828261282a565b919050565b6000604051905090565b600067ffffffffffffffff821115612608576126076128e8565b5b6126118261292b565b9050602081019050919050565b600081519050919050565b600082825260208201905092915050565b60006126458261279f565b91506126508361279f565b9250827fffffffffffffffffffffffffffffffffffffffffffffffffffffffffffffffff038211156126855761268461285b565b5b828201905092915050565b600061269b8261279f565b91506126a68361279f565b9250826126b6576126b561288a565b5b828204905092915050565b60006126cc8261279f565b91506126d78361279f565b9250817fffffffffffffffffffffffffffffffffffffffffffffffffffffffffffffffff04831182151516156127105761270f61285b565b5b828202905092915050565b60006127268261279f565b91506127318361279f565b9250828210156127445761274361285b565b5b828203905092915050565b600061275a8261277f565b9050919050565b60008115159050919050565b60006127788261274f565b9050919050565b600073ffffffffffffffffffffffffffffffffffffffff82169050919050565b6000819050919050565b600060ff82169050919050565b82818337600083830152505050565b60005b838110156127e35780820151818401526020810190506127c8565b838111156127f2576000848401525b50505050565b6000600282049050600182168061281057607f821691505b60208210811415612824576128236128b9565b5b50919050565b6128338261292b565b810181811067ffffffffffffffff82111715612852576128516128e8565b5b80604052505050565b7f4e487b7100000000000000000000000000000000000000000000000000000000600052601160045260246000fd5b7f4e487b7100000000000000000000000000000000000000000000000000000000600052601260045260246000fd5b7f4e487b7100000000000000000000000000000000000000000000000000000000600052602260045260246000fd5b7f4e487b7100000000000000000000000000000000000000000000000000000000600052604160045260246000fd5b600080fd5b600080fd5b600080fd5b600080fd5b6000601f19601f8301169050919050565b7f45524332303a207472616e7366657220746f20746865207a65726f206164647260008201527f6573730000000000000000000000000000000000000000000000000000000000602082015250565b7f45524332303a206275726e20616d6f756e7420657863656564732062616c616e60008201527f6365000000000000000000000000000000000000000000000000000000000000602082015250565b7f45524332303a2043616e6e6f74206d696e7420746f6b656e732c20696e73756660008201527f66696369656e742066756e647300000000000000000000000000000000000000602082015250565b7f4f776e61626c653a206e6577206f776e657220697320746865207a65726f206160008201527f6464726573730000000000000000000000000000000000000000000000000000602082015250565b7f45524332303a20617070726f766520746f20746865207a65726f20616464726560008201527f7373000000000000000000000000000000000000000000000000000000000000602082015250565b7f45524332303a207472616e7366657220616d6f756e742065786365656473206260008201527f616c616e63650000000000000000000000000000000000000000000000000000602082015250565b7f496e697469616c697a61626c653a20636f6e747261637420697320616c72656160008201527f647920696e697469616c697a6564000000000000000000000000000000000000602082015250565b7f43726561746f7220726577617264732063616e6e6f742065786365656420313060008201527f3025000000000000000000000000000000000000000000000000000000000000602082015250565b7f45524332303a207472616e7366657220616d6f756e742065786365656473206160008201527f6c6c6f77616e6365000000000000000000000000000000000000000000000000602082015250565b7f4f776e61626c653a2063616c6c6572206973206e6f7420746865206f776e6572600082015250565b7f45524332303a206275726e2066726f6d20746865207a65726f2061646472657360008201527f7300000000000000000000000000000000000000000000000000000000000000602082015250565b7f45524332303a207472616e736665722066726f6d20746865207a65726f20616460008201527f6472657373000000000000000000000000000000000000000000000000000000602082015250565b7f45524332303a20617070726f76652066726f6d20746865207a65726f2061646460008201527f7265737300000000000000000000000000000000000000000000000000000000602082015250565b7f45524332303a20436f756c64206e6f74207472616e73666572206275726e696e60008201527f6720726577617264730000000000000000000000000000000000000000000000602082015250565b7f496e697469616c697a61626c653a20636f6e7472616374206973206e6f74206960008201527f6e697469616c697a696e67000000000000000000000000000000000000000000602082015250565b7f45524332303a2064656372656173656420616c6c6f77616e63652062656c6f7760008201527f207a65726f000000000000000000000000000000000000000000000000000000602082015250565b7f45524332303a206d696e7420746f20746865207a65726f206164647265737300600082015250565b612e388161274f565b8114612e4357600080fd5b50565b612e4f81612761565b8114612e5a57600080fd5b50565b612e668161276d565b8114612e7157600080fd5b50565b612e7d8161279f565b8114612e8857600080fd5b5056fea2646970667358221220d7f0487fdeeabe565be5fc57142fb24941642bcf86fa637f6f338486dd84a35964736f6c63430008060033",
  "immutableReferences": {},
  "source": "// SPDX-License-Identifier: MIT\npragma solidity ^0.8.0;\n\nimport \"@openzeppelin/contracts/utils/Context.sol\";\nimport \"@openzeppelin/contracts/proxy/Clones.sol\";\n\nimport \"./CreatorToken.sol\";\nimport \"./Ven.sol\";\n\ncontract CreatorTokenFactory is Context {\n\tIERC20 parent_token;\n\tCreatorToken rootAbiToken;\n\n\tevent CreatorTokenCreate(address indexed token, address indexed creator);\n\n\tconstructor(IERC20 _parent_token) Context() {\n\t\tparent_token = _parent_token;\n\t\trootAbiToken = new CreatorToken();\n\t}\n\n\tfunction createToken(string memory _name, string memory _symbol) public returns (CreatorToken) {\n\t\tCreatorToken token = CreatorToken(Clones.clone(address(rootAbiToken)));\n\t\t\n\t\ttoken.initialize(_name, _symbol, parent_token);\n\t\ttoken.transferOwnership(_msgSender());\n\n\t\temit CreatorTokenCreate(address(token), _msgSender());\n\t\treturn token;\n\t}\n}\n",
  "sourcePath": "/home/apoorv/projects/venlo/core/contracts/CreatorTokenFactory.sol",
  "compiler": {
    "name": "solc",
    "version": "0.8.6+commit.11564f7e.Emscripten.clang"
  },
  "schemaVersion": "3.4.3",
  "updatedAt": "2022-05-12T06:47:23.617Z",
  "networkType": "ethereum",
  "devdoc": {
    "kind": "dev",
    "methods": {},
    "version": 1
  },
  "userdoc": {
    "kind": "user",
    "methods": {},
    "version": 1
  }
}