{
  "contractName": "RepoFactory",
  "abi": [
    {
      "inputs": [],
      "stateMutability": "nonpayable",
      "type": "constructor"
    },
    {
      "anonymous": false,
      "inputs": [
        {
          "indexed": true,
          "internalType": "address",
          "name": "repo",
          "type": "address"
        },
        {
          "indexed": true,
          "internalType": "address",
          "name": "creatorToken",
          "type": "address"
        },
        {
          "indexed": true,
          "internalType": "address",
          "name": "owner",
          "type": "address"
        }
      ],
      "name": "RepoCreate",
      "type": "event"
    },
    {
      "inputs": [
        {
          "internalType": "contract CreatorToken",
          "name": "creatorToken",
          "type": "address"
        },
        {
          "internalType": "uint8[64]",
          "name": "context",
          "type": "uint8[64]"
        }
      ],
      "name": "createRepo",
      "outputs": [
        {
          "internalType": "address",
          "name": "",
          "type": "address"
        }
      ],
      "stateMutability": "nonpayable",
      "type": "function"
    }
  ],
  "bytecode": "0x608060405234801561001057600080fd5b5060405161001d9061007e565b604051809103906000f080158015610039573d6000803e3d6000fd5b506000806101000a81548173ffffffffffffffffffffffffffffffffffffffff021916908373ffffffffffffffffffffffffffffffffffffffff16021790555061008b565b612a908061068083390190565b6105e68061009a6000396000f3fe608060405234801561001057600080fd5b506004361061002b5760003560e01c8063837b898b14610030575b600080fd5b61004a60048036038101906100459190610318565b610060565b6040516100579190610420565b60405180910390f35b60008061008c60008054906101000a900473ffffffffffffffffffffffffffffffffffffffff166101ef565b90508073ffffffffffffffffffffffffffffffffffffffff16639ca6e28285856040518363ffffffff1660e01b81526004016100c992919061043b565b600060405180830381600087803b1580156100e357600080fd5b505af11580156100f7573d6000803e3d6000fd5b505050508073ffffffffffffffffffffffffffffffffffffffff1663f2fde38b61011f6102c4565b6040518263ffffffff1660e01b815260040161013b9190610420565b600060405180830381600087803b15801561015557600080fd5b505af1158015610169573d6000803e3d6000fd5b505050506101756102c4565b73ffffffffffffffffffffffffffffffffffffffff168473ffffffffffffffffffffffffffffffffffffffff168273ffffffffffffffffffffffffffffffffffffffff167f79d5f5704606b5e2b52a79274c8ab76f97b3e9f9165d1a6a384b670389d3649460405160405180910390a48091505092915050565b60006040517f3d602d80600a3d3981f3363d3d373d3d3d363d7300000000000000000000000081528260601b60148201527f5af43d82803e903d91602b57fd5bf3000000000000000000000000000000000060288201526037816000f0915050600073ffffffffffffffffffffffffffffffffffffffff168173ffffffffffffffffffffffffffffffffffffffff1614156102bf576040517f08c379a00000000000000000000000000000000000000000000000000000000081526004016102b690610465565b60405180910390fd5b919050565b600033905090565b6000819050826020604002820111156102e8576102e761054f565b5b92915050565b6000813590506102fd81610582565b92915050565b60008135905061031281610599565b92915050565b60008061082083850312156103305761032f610554565b5b600061033e858286016102ee565b925050602061034f858286016102cc565b9150509250929050565b60006103658383610411565b60208301905092915050565b61037a816104da565b82525050565b6103898161048f565b61039381846104a7565b925061039e82610485565b8060005b838110156103d7576103b482846104c3565b6103be8782610359565b96506103c98361049a565b9250506001810190506103a2565b505050505050565b6103e88161052b565b82525050565b60006103fb6016836104b2565b915061040682610559565b602082019050919050565b61041a8161051e565b82525050565b60006020820190506104356000830184610371565b92915050565b60006108208201905061045160008301856103df565b61045e6020830184610380565b9392505050565b6000602082019050818103600083015261047e816103ee565b9050919050565b6000819050919050565b600060409050919050565b6000602082019050919050565b600081905092915050565b600082825260208201905092915050565b60006104d26020840184610303565b905092915050565b60006104e5826104fe565b9050919050565b60006104f7826104da565b9050919050565b600073ffffffffffffffffffffffffffffffffffffffff82169050919050565b600060ff82169050919050565b60006105368261053d565b9050919050565b6000610548826104fe565b9050919050565b600080fd5b600080fd5b7f455243313136373a20637265617465206661696c656400000000000000000000600082015250565b61058b816104ec565b811461059657600080fd5b50565b6105a28161051e565b81146105ad57600080fd5b5056fea264697066735822122026285338690d90d53ae14504fc809837c82a9061778a4fe62225ddc84b4995ec64736f6c6343000806003360806040526001606a60006101000a81548160ff02191690831515021790555034801561002b57600080fd5b50612a558061003b6000396000f3fe608060405234801561001057600080fd5b50600436106100ea5760003560e01c80638da5cb5b1161008c578063d0496d6a11610066578063d0496d6a1461020f578063e313d3411461022d578063f2fde38b14610249578063fc0c546a14610265576100ea565b80638da5cb5b146101b95780639ca6e282146101d7578063b5a0de06146101f3576100ea565b806361ac1a1e116100c857806361ac1a1e14610159578063715018a61461017557806374de3ca71461017f578063766b857e1461019d576100ea565b80631265dcaf146100ef5780631eccee391461010b5780635802f1d314610129575b600080fd5b61010960048036038101906101049190611dcb565b610283565b005b610113610472565b6040516101209190612349565b60405180910390f35b610143600480360381019061013e9190611dcb565b610485565b6040516101509190612444565b60405180910390f35b610173600480360381019061016e9190611dcb565b610607565b005b61017d6107e7565b005b61018761086f565b604051610194919061230b565b60405180910390f35b6101b760048036038101906101b29190611dcb565b610b9d565b005b6101c1610e1f565b6040516101ce9190612290565b60405180910390f35b6101f160048036038101906101ec9190611d8a565b610e49565b005b61020d60048036038101906102089190611d2f565b61101a565b005b61021761102f565b604051610224919061232d565b60405180910390f35b61024760048036038101906102429190611df8565b6110a0565b005b610263600480360381019061025e9190611d02565b611518565b005b61026d611610565b60405161027a9190612290565b60405180910390f35b80600061028f8261163a565b90508060010160009054906101000a900473ffffffffffffffffffffffffffffffffffffffff1673ffffffffffffffffffffffffffffffffffffffff166102d4611764565b73ffffffffffffffffffffffffffffffffffffffff161461032a576040517f08c379a0000000000000000000000000000000000000000000000000000000008152600401610321906123e4565b60405180910390fd5b60006103358461163a565b9050606560009054906101000a900473ffffffffffffffffffffffffffffffffffffffff1673ffffffffffffffffffffffffffffffffffffffff1663a9059cbb61037d610e1f565b83600201546040518363ffffffff1660e01b815260040161039f9291906122e2565b602060405180830381600087803b1580156103b957600080fd5b505af11580156103cd573d6000803e3d6000fd5b505050506040513d601f19601f820116820180604052508101906103f19190611d5d565b5060008160000160006101000a8154816fffffffffffffffffffffffffffffffff02191690836fffffffffffffffffffffffffffffffff160217905550836fffffffffffffffffffffffffffffffff167e8e69eb2bd87be102869487aea6ba9b448bea880cbef7f9918b8e910f908d6360405160405180910390a250505050565b606a60009054906101000a900460ff1681565b61048d6119ea565b6104968261163a565b6040518060a00160405290816000820160009054906101000a90046fffffffffffffffffffffffffffffffff166fffffffffffffffffffffffffffffffff166fffffffffffffffffffffffffffffffff1681526020016001820160009054906101000a900473ffffffffffffffffffffffffffffffffffffffff1673ffffffffffffffffffffffffffffffffffffffff1673ffffffffffffffffffffffffffffffffffffffff168152602001600282015481526020016003820160009054906101000a90046fffffffffffffffffffffffffffffffff166fffffffffffffffffffffffffffffffff166fffffffffffffffffffffffffffffffff168152602001600482016040806020026040519081016040528092919082604080156105f7576020028201916000905b82829054906101000a900460ff1660ff16815260200190600101906020826000010492830192600103820291508084116105c05790505b5050505050815250509050919050565b61060f611764565b73ffffffffffffffffffffffffffffffffffffffff1661062d610e1f565b73ffffffffffffffffffffffffffffffffffffffff1614610683576040517f08c379a000000000000000000000000000000000000000000000000000000000815260040161067a906123c4565b60405180910390fd5b600061068e8261163a565b9050606560009054906101000a900473ffffffffffffffffffffffffffffffffffffffff1673ffffffffffffffffffffffffffffffffffffffff1663a9059cbb8260010160009054906101000a900473ffffffffffffffffffffffffffffffffffffffff1683600201546040518363ffffffff1660e01b81526004016107159291906122e2565b602060405180830381600087803b15801561072f57600080fd5b505af1158015610743573d6000803e3d6000fd5b505050506040513d601f19601f820116820180604052508101906107679190611d5d565b5060008160000160006101000a8154816fffffffffffffffffffffffffffffffff02191690836fffffffffffffffffffffffffffffffff160217905550816fffffffffffffffffffffffffffffffff167f37f0ffea363f56b8909317ad9575fe4af24f80a8ade7a4ea494865765323498c60405160405180910390a25050565b6107ef611764565b73ffffffffffffffffffffffffffffffffffffffff1661080d610e1f565b73ffffffffffffffffffffffffffffffffffffffff1614610863576040517f08c379a000000000000000000000000000000000000000000000000000000000815260040161085a906123c4565b60405180910390fd5b61086d600061176c565b565b60606000805b6066805490508110156108ff576000606682815481106108985761089761273a565b5b906000526020600020906006020160000160009054906101000a90046fffffffffffffffffffffffffffffffff166fffffffffffffffffffffffffffffffff16146108ec5781806108e890612691565b9250505b80806108f790612691565b915050610875565b5060008167ffffffffffffffff81111561091c5761091b612769565b5b60405190808252806020026020018201604052801561095557816020015b6109426119ea565b81526020019060019003908161093a5790505b5090506000915060005b606680549050811015610b94576000606682815481106109825761098161273a565b5b906000526020600020906006020160000160009054906101000a90046fffffffffffffffffffffffffffffffff166fffffffffffffffffffffffffffffffff1614610b8157606681815481106109db576109da61273a565b5b90600052602060002090600602016040518060a00160405290816000820160009054906101000a90046fffffffffffffffffffffffffffffffff166fffffffffffffffffffffffffffffffff166fffffffffffffffffffffffffffffffff1681526020016001820160009054906101000a900473ffffffffffffffffffffffffffffffffffffffff1673ffffffffffffffffffffffffffffffffffffffff1673ffffffffffffffffffffffffffffffffffffffff168152602001600282015481526020016003820160009054906101000a90046fffffffffffffffffffffffffffffffff166fffffffffffffffffffffffffffffffff166fffffffffffffffffffffffffffffffff16815260200160048201604080602002604051908101604052809291908260408015610b4a576020028201916000905b82829054906101000a900460ff1660ff1681526020019060010190602082600001049283019260010382029150808411610b135790505b505050505081525050828481518110610b6657610b6561273a565b5b6020026020010181905250600183610b7e9190612561565b92505b8080610b8c90612691565b91505061095f565b50809250505090565b806000610ba98261163a565b90508060010160009054906101000a900473ffffffffffffffffffffffffffffffffffffffff1673ffffffffffffffffffffffffffffffffffffffff16610bee611764565b73ffffffffffffffffffffffffffffffffffffffff1614610c44576040517f08c379a0000000000000000000000000000000000000000000000000000000008152600401610c3b906123e4565b60405180910390fd5b6000610c4f8461163a565b9050428160030160009054906101000a90046fffffffffffffffffffffffffffffffff166fffffffffffffffffffffffffffffffff161115610cc6576040517f08c379a0000000000000000000000000000000000000000000000000000000008152600401610cbd90612404565b60405180910390fd5b606560009054906101000a900473ffffffffffffffffffffffffffffffffffffffff1673ffffffffffffffffffffffffffffffffffffffff1663a9059cbb8260010160009054906101000a900473ffffffffffffffffffffffffffffffffffffffff1683600201546040518363ffffffff1660e01b8152600401610d4b9291906122e2565b602060405180830381600087803b158015610d6557600080fd5b505af1158015610d79573d6000803e3d6000fd5b505050506040513d601f19601f82011682018060405250810190610d9d9190611d5d565b5060008160000160006101000a8154816fffffffffffffffffffffffffffffffff02191690836fffffffffffffffffffffffffffffffff160217905550836fffffffffffffffffffffffffffffffff167ff951cddb2c86902cc5a4fe6a0ce832ff6e93e430e055973aefb5354c01784d2760405160405180910390a250505050565b6000603360009054906101000a900473ffffffffffffffffffffffffffffffffffffffff16905090565b600060019054906101000a900460ff16610e715760008054906101000a900460ff1615610e7a565b610e79611832565b5b610eb9576040517f08c379a0000000000000000000000000000000000000000000000000000000008152600401610eb0906123a4565b60405180910390fd5b60008060019054906101000a900460ff161590508015610f09576001600060016101000a81548160ff02191690831515021790555060016000806101000a81548160ff0219169083151502179055505b610f11611843565b60005b6040811015610f8857828160408110610f3057610f2f61273a565b5b602002016020810190610f439190611e4d565b60688260408110610f5757610f5661273a565b5b602091828204019190066101000a81548160ff021916908360ff16021790555080610f8190612691565b9050610f14565b506001606760006101000a81548167ffffffffffffffff021916908367ffffffffffffffff16021790555082606560006101000a81548173ffffffffffffffffffffffffffffffffffffffff021916908373ffffffffffffffffffffffffffffffffffffffff16021790555080156110155760008060016101000a81548160ff0219169083151502179055505b505050565b80606890604061102b929190611a59565b5050565b611037611af6565b6068604080602002604051908101604052809291908260408015611096576020028201916000905b82829054906101000a900460ff1660ff168152602001906001019060208260000104928301926001038202915080841161105f5790505b5050505050905090565b60006110aa61189c565b90506000606760009054906101000a900467ffffffffffffffff1667ffffffffffffffff166040836fffffffffffffffffffffffffffffffff16901b17905060006040518060a00160405280836fffffffffffffffffffffffffffffffff168152602001611116611764565b73ffffffffffffffffffffffffffffffffffffffff168152602001878152602001856fffffffffffffffffffffffffffffffff16815260200186815250905060668054905083141561127c57606681908060018154018082558091505060019003906000526020600020906006020160009091909190915060008201518160000160006101000a8154816fffffffffffffffffffffffffffffffff02191690836fffffffffffffffffffffffffffffffff16021790555060208201518160010160006101000a81548173ffffffffffffffffffffffffffffffffffffffff021916908373ffffffffffffffffffffffffffffffffffffffff1602179055506040820151816002015560608201518160030160006101000a8154816fffffffffffffffffffffffffffffffff02191690836fffffffffffffffffffffffffffffffff160217905550608082015181600401906040611274929190611b19565b50505061138a565b80606684815481106112915761129061273a565b5b906000526020600020906006020160008201518160000160006101000a8154816fffffffffffffffffffffffffffffffff02191690836fffffffffffffffffffffffffffffffff16021790555060208201518160010160006101000a81548173ffffffffffffffffffffffffffffffffffffffff021916908373ffffffffffffffffffffffffffffffffffffffff1602179055506040820151816002015560608201518160030160006101000a8154816fffffffffffffffffffffffffffffffff02191690836fffffffffffffffffffffffffffffffff160217905550608082015181600401906040611385929190611b19565b509050505b606560009054906101000a900473ffffffffffffffffffffffffffffffffffffffff1673ffffffffffffffffffffffffffffffffffffffff166323b872dd6113d0611764565b30896040518463ffffffff1660e01b81526004016113f0939291906122ab565b602060405180830381600087803b15801561140a57600080fd5b505af115801561141e573d6000803e3d6000fd5b505050506040513d601f19601f820116820180604052508101906114429190611d5d565b506067600081819054906101000a900467ffffffffffffffff1680929190611469906126da565b91906101000a81548167ffffffffffffffff021916908367ffffffffffffffff160217905550508460405161149e9190612274565b60405180910390206114ae611764565b73ffffffffffffffffffffffffffffffffffffffff16836fffffffffffffffffffffffffffffffff167f0c5e1ad6ab031124f8d3954be32f08bc0c39640c6e7a57775993faea2e534f788988604051611508929190612460565b60405180910390a4505050505050565b611520611764565b73ffffffffffffffffffffffffffffffffffffffff1661153e610e1f565b73ffffffffffffffffffffffffffffffffffffffff1614611594576040517f08c379a000000000000000000000000000000000000000000000000000000000815260040161158b906123c4565b60405180910390fd5b600073ffffffffffffffffffffffffffffffffffffffff168173ffffffffffffffffffffffffffffffffffffffff161415611604576040517f08c379a00000000000000000000000000000000000000000000000000000000081526004016115fb90612364565b60405180910390fd5b61160d8161176c565b50565b6000606560009054906101000a900473ffffffffffffffffffffffffffffffffffffffff16905090565b60008061164683611934565b9050606680549050811061168f576040517f08c379a000000000000000000000000000000000000000000000000000000000815260040161168690612384565b60405180910390fd5b6000606682815481106116a5576116a461273a565b5b90600052602060002090600602019050836fffffffffffffffffffffffffffffffff168160000160009054906101000a90046fffffffffffffffffffffffffffffffff166fffffffffffffffffffffffffffffffff1614801561171b57506000846fffffffffffffffffffffffffffffffff1614155b61175a576040517f08c379a000000000000000000000000000000000000000000000000000000000815260040161175190612384565b60405180910390fd5b8092505050919050565b600033905090565b6000603360009054906101000a900473ffffffffffffffffffffffffffffffffffffffff16905081603360006101000a81548173ffffffffffffffffffffffffffffffffffffffff021916908373ffffffffffffffffffffffffffffffffffffffff1602179055508173ffffffffffffffffffffffffffffffffffffffff168173ffffffffffffffffffffffffffffffffffffffff167f8be0079c531659141344cd1fd0a4f28419497f9722a3daafe3b4186f6b6457e060405160405180910390a35050565b600061183d30611966565b15905090565b600060019054906101000a900460ff16611892576040517f08c379a000000000000000000000000000000000000000000000000000000000815260040161188990612424565b60405180910390fd5b61189a611989565b565b600080600090505b606680549050811015611927576000606682815481106118c7576118c661273a565b5b906000526020600020906006020160000160009054906101000a90046fffffffffffffffffffffffffffffffff166fffffffffffffffffffffffffffffffff1614156119165780915050611931565b8061192090612691565b90506118a4565b5060668054905090505b90565b60006040826fffffffffffffffffffffffffffffffff16901c6fffffffffffffffffffffffffffffffff169050919050565b6000808273ffffffffffffffffffffffffffffffffffffffff163b119050919050565b600060019054906101000a900460ff166119d8576040517f08c379a00000000000000000000000000000000000000000000000000000000081526004016119cf90612424565b60405180910390fd5b6119e86119e3611764565b61176c565b565b6040518060a0016040528060006fffffffffffffffffffffffffffffffff168152602001600073ffffffffffffffffffffffffffffffffffffffff1681526020016000815260200160006fffffffffffffffffffffffffffffffff168152602001611a53611af6565b81525090565b826040601f01602090048101928215611ae55791602002820160005b83821115611ab657833560ff1683826101000a81548160ff021916908360ff1602179055509260200192600101602081600001049283019260010302611a75565b8015611ae35782816101000a81549060ff0219169055600101602081600001049283019260010302611ab6565b505b509050611af29190611bb3565b5090565b604051806108000160405280604090602082028036833780820191505090505090565b826040601f01602090048101928215611ba25791602002820160005b83821115611b7357835183826101000a81548160ff021916908360ff1602179055509260200192600101602081600001049283019260010302611b35565b8015611ba05782816101000a81549060ff0219169055600101602081600001049283019260010302611b73565b505b509050611baf9190611bb3565b5090565b5b80821115611bcc576000816000905550600101611bb4565b5090565b6000611be3611bde846124ae565b612489565b90508082856020860282011115611bfd57611bfc61279d565b5b60005b85811015611c2d5781611c138882611ced565b845260208401935060208301925050600181019050611c00565b5050509392505050565b600081359050611c4681612995565b92915050565b600081905082602060400282011115611c6857611c6761279d565b5b92915050565b600082601f830112611c8357611c82612798565b5b6040611c90848285611bd0565b91505092915050565b600081519050611ca8816129ac565b92915050565b600081359050611cbd816129c3565b92915050565b600081359050611cd2816129da565b92915050565b600081359050611ce7816129f1565b92915050565b600081359050611cfc81612a08565b92915050565b600060208284031215611d1857611d176127a2565b5b6000611d2684828501611c37565b91505092915050565b60006108008284031215611d4657611d456127a2565b5b6000611d5484828501611c4c565b91505092915050565b600060208284031215611d7357611d726127a2565b5b6000611d8184828501611c99565b91505092915050565b6000806108208385031215611da257611da16127a2565b5b6000611db085828601611cae565b9250506020611dc185828601611c4c565b9150509250929050565b600060208284031215611de157611de06127a2565b5b6000611def84828501611cc3565b91505092915050565b60008060006108408486031215611e1257611e116127a2565b5b6000611e2086828701611cd8565b9350506020611e3186828701611c6e565b925050610820611e4386828701611cc3565b9150509250925092565b600060208284031215611e6357611e626127a2565b5b6000611e7184828501611ced565b91505092915050565b6000611e868383612148565b6108808301905092915050565b6000611e9f8383612256565b60208301905092915050565b6000611eb78383612265565b60208301905092915050565b611ecc816125b7565b82525050565b611edb816125b7565b82525050565b6000611eec826124ee565b611ef6818561251e565b9350611f01836124d4565b8060005b83811015611f32578151611f198882611e7a565b9750611f2483612504565b925050600181019050611f05565b5085935050505092915050565b611f48816124f9565b611f52818461252f565b9250611f5d826124e4565b8060005b83811015611f8e578151611f758782611e93565b9650611f8083612511565b925050600181019050611f61565b505050505050565b611f9f816124f9565b611fa9818461253a565b9250611fb4826124e4565b8060005b83811015611fe5578151611fcc8782611e93565b9650611fd783612511565b925050600181019050611fb8565b505050505050565b611ff6816124f9565b6120008184612545565b925061200b826124e4565b8060005b8381101561203c5781516120238782611eab565b965061202e83612511565b92505060018101905061200f565b505050505050565b61204d816125c9565b82525050565b6000612060602683612550565b915061206b826127b8565b604082019050919050565b6000612083601d83612550565b915061208e82612807565b602082019050919050565b60006120a6602e83612550565b91506120b182612830565b604082019050919050565b60006120c9602083612550565b91506120d48261287f565b602082019050919050565b60006120ec602383612550565b91506120f7826128a8565b604082019050919050565b600061210f603383612550565b915061211a826128f7565b604082019050919050565b6000612132602b83612550565b915061213d82612946565b604082019050919050565b6108808201600082015161215f600085018261221a565b5060208201516121726020850182611ec3565b5060408201516121856040850182612238565b506060820151612198606085018261221a565b5060808201516121ab6080850182611f3f565b50505050565b610880820160008201516121c8600085018261221a565b5060208201516121db6020850182611ec3565b5060408201516121ee6040850182612238565b506060820151612201606085018261221a565b5060808201516122146080850182611f3f565b50505050565b612223816125e7565b82525050565b6122328161264e565b82525050565b61224181612623565b82525050565b61225081612623565b82525050565b61225f81612641565b82525050565b61226e81612641565b82525050565b60006122808284611fed565b6108008201915081905092915050565b60006020820190506122a56000830184611ed2565b92915050565b60006060820190506122c06000830186611ed2565b6122cd6020830185611ed2565b6122da6040830184612247565b949350505050565b60006040820190506122f76000830185611ed2565b6123046020830184612247565b9392505050565b600060208201905081810360008301526123258184611ee1565b905092915050565b6000610800820190506123436000830184611f96565b92915050565b600060208201905061235e6000830184612044565b92915050565b6000602082019050818103600083015261237d81612053565b9050919050565b6000602082019050818103600083015261239d81612076565b9050919050565b600060208201905081810360008301526123bd81612099565b9050919050565b600060208201905081810360008301526123dd816120bc565b9050919050565b600060208201905081810360008301526123fd816120df565b9050919050565b6000602082019050818103600083015261241d81612102565b9050919050565b6000602082019050818103600083015261243d81612125565b9050919050565b60006108808201905061245a60008301846121b1565b92915050565b60006040820190506124756000830185612247565b6124826020830184612229565b9392505050565b60006124936124a4565b905061249f8282612660565b919050565b6000604051905090565b600067ffffffffffffffff8211156124c9576124c8612769565b5b602082029050919050565b6000819050602082019050919050565b6000819050919050565b600081519050919050565b600060409050919050565b6000602082019050919050565b6000602082019050919050565b600082825260208201905092915050565b600081905092915050565b600081905092915050565b600081905092915050565b600082825260208201905092915050565b600061256c82612623565b915061257783612623565b9250827fffffffffffffffffffffffffffffffffffffffffffffffffffffffffffffffff038211156125ac576125ab61270b565b5b828201905092915050565b60006125c282612603565b9050919050565b60008115159050919050565b60006125e0826125b7565b9050919050565b60006fffffffffffffffffffffffffffffffff82169050919050565b600073ffffffffffffffffffffffffffffffffffffffff82169050919050565b6000819050919050565b600067ffffffffffffffff82169050919050565b600060ff82169050919050565b6000612659826125e7565b9050919050565b612669826127a7565b810181811067ffffffffffffffff8211171561268857612687612769565b5b80604052505050565b600061269c82612623565b91507fffffffffffffffffffffffffffffffffffffffffffffffffffffffffffffffff8214156126cf576126ce61270b565b5b600182019050919050565b60006126e58261262d565b915067ffffffffffffffff821415612700576126ff61270b565b5b600182019050919050565b7f4e487b7100000000000000000000000000000000000000000000000000000000600052601160045260246000fd5b7f4e487b7100000000000000000000000000000000000000000000000000000000600052603260045260246000fd5b7f4e487b7100000000000000000000000000000000000000000000000000000000600052604160045260246000fd5b600080fd5b600080fd5b600080fd5b6000601f19601f8301169050919050565b7f4f776e61626c653a206e6577206f776e657220697320746865207a65726f206160008201527f6464726573730000000000000000000000000000000000000000000000000000602082015250565b7f717565727920666f7220616e20696e6578697374656e74206973737565000000600082015250565b7f496e697469616c697a61626c653a20636f6e747261637420697320616c72656160008201527f647920696e697469616c697a6564000000000000000000000000000000000000602082015250565b7f4f776e61626c653a2063616c6c6572206973206e6f7420746865206f776e6572600082015250565b7f4f6e6c792069737375652063726561746f722063616e206d6f6469667920697360008201527f7375650000000000000000000000000000000000000000000000000000000000602082015250565b7f43616e6e6f7420776974686472617720746f6b656e73206265666f726520746860008201527f6520697373756520686173206578706972656400000000000000000000000000602082015250565b7f496e697469616c697a61626c653a20636f6e7472616374206973206e6f74206960008201527f6e697469616c697a696e67000000000000000000000000000000000000000000602082015250565b61299e816125b7565b81146129a957600080fd5b50565b6129b5816125c9565b81146129c057600080fd5b50565b6129cc816125d5565b81146129d757600080fd5b50565b6129e3816125e7565b81146129ee57600080fd5b50565b6129fa81612623565b8114612a0557600080fd5b50565b612a1181612641565b8114612a1c57600080fd5b5056fea2646970667358221220df41cdec5a50fe7743a0579ebaef1967fefa5c4672e228e9eb9e1f77d642168164736f6c63430008060033",
  "immutableReferences": {},
  "source": "// SPDX-License-Identifier: MIT\npragma solidity ^0.8.0;\n\nimport \"@openzeppelin/contracts/utils/Context.sol\";\nimport \"@openzeppelin/contracts/proxy/Clones.sol\";\n\nimport \"./Repository.sol\";\n\ncontract RepoFactory is Context {\n\tRepository rootAbiToken;\n\n  event RepoCreate(address indexed repo, address indexed creatorToken, address indexed owner);\n\n\tconstructor() Context() {\n\t\trootAbiToken = new Repository();\n\t}\n\n\tfunction createRepo(CreatorToken creatorToken, uint8[64] calldata context) public returns (address) {\n\t\tRepository repo = Repository(Clones.clone(address(rootAbiToken)));\n\t\t\n\t\trepo.initialize(creatorToken, context);\n\t\trepo.transferOwnership(_msgSender());\n\n    emit RepoCreate(address(repo), address(creatorToken), _msgSender());\n\t\treturn address(repo);\n\t}\n}\n",
  "sourcePath": "/home/apoorv/projects/venlo/core/contracts/RepoFactory.sol",
  "compiler": {
    "name": "solc",
    "version": "0.8.6+commit.11564f7e.Emscripten.clang"
  },
  "schemaVersion": "3.4.3",
  "updatedAt": "2022-05-11T17:34:32.718Z",
  "networkType": "ethereum",
  "devdoc": {
    "kind": "dev",
    "methods": {},
    "version": 1
  },
  "userdoc": {
    "kind": "user",
    "methods": {},
    "version": 1
  }
}