{
  "contractName": "RepoTable",
  "abi": [
    {
      "inputs": [
        {
          "internalType": "address",
          "name": "_admin",
          "type": "address"
        }
      ],
      "stateMutability": "nonpayable",
      "type": "constructor"
    },
    {
      "anonymous": false,
      "inputs": [
        {
          "indexed": true,
          "internalType": "address",
          "name": "addr",
          "type": "address"
        },
        {
          "indexed": true,
          "internalType": "uint256",
          "name": "githubId",
          "type": "uint256"
        }
      ],
      "name": "NewRecord",
      "type": "event"
    },
    {
      "inputs": [],
      "name": "admin",
      "outputs": [
        {
          "internalType": "address",
          "name": "",
          "type": "address"
        }
      ],
      "stateMutability": "view",
      "type": "function",
      "constant": true
    },
    {
      "inputs": [
        {
          "internalType": "address",
          "name": "addr",
          "type": "address"
        },
        {
          "internalType": "uint256",
          "name": "githubId",
          "type": "uint256"
        },
        {
          "internalType": "uint8",
          "name": "v",
          "type": "uint8"
        },
        {
          "internalType": "bytes32",
          "name": "r",
          "type": "bytes32"
        },
        {
          "internalType": "bytes32",
          "name": "s",
          "type": "bytes32"
        }
      ],
      "name": "addRecord",
      "outputs": [],
      "stateMutability": "nonpayable",
      "type": "function"
    }
  ],
  "bytecode": "0x608060405234801561001057600080fd5b50604051610ab6380380610ab68339818101604052810190610032919061008d565b806000806101000a81548173ffffffffffffffffffffffffffffffffffffffff021916908373ffffffffffffffffffffffffffffffffffffffff16021790555050610108565b600081519050610087816100f1565b92915050565b6000602082840312156100a3576100a26100ec565b5b60006100b184828501610078565b91505092915050565b60006100c5826100cc565b9050919050565b600073ffffffffffffffffffffffffffffffffffffffff82169050919050565b600080fd5b6100fa816100ba565b811461010557600080fd5b50565b61099f806101176000396000f3fe608060405234801561001057600080fd5b50600436106100365760003560e01c8063c29e1cbe1461003b578063f851a44014610057575b600080fd5b6100556004803603810190610050919061046f565b610075565b005b61005f6103a0565b60405161006c919061068e565b60405180910390f35b600080868660405160200161008c93929190610651565b60405160208183030381529060405290506000816040516020016100b0919061062f565b604051602081830303815290604052805190602001209050600181868686604051600081526020016040526040516100eb94939291906106a9565b6020604051602081039080840390855afa15801561010d573d6000803e3d6000fd5b5050506020604051035173ffffffffffffffffffffffffffffffffffffffff1660008054906101000a900473ffffffffffffffffffffffffffffffffffffffff1673ffffffffffffffffffffffffffffffffffffffff16146101a4576040517f08c379a000000000000000000000000000000000000000000000000000000000815260040161019b906106ee565b60405180910390fd5b600115158773ffffffffffffffffffffffffffffffffffffffff16631eccee396040518163ffffffff1660e01b815260040160206040518083038186803b1580156101ee57600080fd5b505afa158015610202573d6000803e3d6000fd5b505050506040513d601f19601f8201168201806040525081019061022691906104ea565b151514610268576040517f08c379a000000000000000000000000000000000000000000000000000000000815260040161025f9061072e565b60405180910390fd5b3373ffffffffffffffffffffffffffffffffffffffff168773ffffffffffffffffffffffffffffffffffffffff16638da5cb5b6040518163ffffffff1660e01b815260040160206040518083038186803b1580156102c557600080fd5b505afa1580156102d9573d6000803e3d6000fd5b505050506040513d601f19601f820116820180604052508101906102fd9190610442565b73ffffffffffffffffffffffffffffffffffffffff1614610353576040517f08c379a000000000000000000000000000000000000000000000000000000000815260040161034a9061070e565b60405180910390fd5b858773ffffffffffffffffffffffffffffffffffffffff167faae60e31e02e72b4542a994da3162e41b1fea88ed072dabe428d89e960bbc56960405160405180910390a350505050505050565b60008054906101000a900473ffffffffffffffffffffffffffffffffffffffff1681565b6000813590506103d3816108f6565b92915050565b6000815190506103e8816108f6565b92915050565b6000815190506103fd8161090d565b92915050565b60008135905061041281610924565b92915050565b6000813590506104278161093b565b92915050565b60008135905061043c81610952565b92915050565b60006020828403121561045857610457610840565b5b6000610466848285016103d9565b91505092915050565b600080600080600060a0868803121561048b5761048a610840565b5b6000610499888289016103c4565b95505060206104aa88828901610418565b94505060406104bb8882890161042d565b93505060606104cc88828901610403565b92505060806104dd88828901610403565b9150509295509295909350565b600060208284031215610500576104ff610840565b5b600061050e848285016103ee565b91505092915050565b61052081610780565b82525050565b61053761053282610780565b610812565b82525050565b6105468161079e565b82525050565b60006105578261074e565b6105618185610759565b93506105718185602086016107df565b80840191505092915050565b600061058a601183610764565b915061059582610852565b602082019050919050565b60006105ad601e83610764565b91506105b88261087b565b602082019050919050565b60006105d0601c83610775565b91506105db826108a4565b601c82019050919050565b60006105f3601883610764565b91506105fe826108cd565b602082019050919050565b61061a610615826107c8565b610836565b82525050565b610629816107d2565b82525050565b600061063a826105c3565b9150610646828461054c565b915081905092915050565b600061065d8286610609565b60208201915061066d8285610526565b60148201915061067d8284610609565b602082019150819050949350505050565b60006020820190506106a36000830184610517565b92915050565b60006080820190506106be600083018761053d565b6106cb6020830186610620565b6106d8604083018561053d565b6106e5606083018461053d565b95945050505050565b600060208201905081810360008301526107078161057d565b9050919050565b60006020820190508181036000830152610727816105a0565b9050919050565b60006020820190508181036000830152610747816105e6565b9050919050565b600081519050919050565b600081905092915050565b600082825260208201905092915050565b600081905092915050565b600061078b826107a8565b9050919050565b60008115159050919050565b6000819050919050565b600073ffffffffffffffffffffffffffffffffffffffff82169050919050565b6000819050919050565b600060ff82169050919050565b60005b838110156107fd5780820151818401526020810190506107e2565b8381111561080c576000848401525b50505050565b600061081d82610824565b9050919050565b600061082f82610845565b9050919050565b6000819050919050565b600080fd5b60008160601b9050919050565b7f496e76616c6964207369676e6174757265000000000000000000000000000000600082015250565b7f5265706f7369746f7279206e6f74206f776e65642062792073656e6465720000600082015250565b7f19457468657265756d205369676e6564204d6573736167653a0a383400000000600082015250565b7f41646472657373206e6f742061207265706f7369746f72790000000000000000600082015250565b6108ff81610780565b811461090a57600080fd5b50565b61091681610792565b811461092157600080fd5b50565b61092d8161079e565b811461093857600080fd5b50565b610944816107c8565b811461094f57600080fd5b50565b61095b816107d2565b811461096657600080fd5b5056fea264697066735822122054fbdc53df4736551e1cba675e3a9cf5c351709232355b1a4eed88287ffea83e64736f6c63430008060033",
  "immutableReferences": {},
  "source": "// SPDX-License-Identifier: MIT\npragma solidity ^0.8.0;\n\nimport \"./Repository.sol\";\n\ncontract UserTable {\n  event NewRecord(address indexed addr, uint256 indexed githubId);\n\n  address public admin;\n\n  constructor(address _admin){\n    admin = _admin;\n  }\n  function addRecord(address addr, uint256 githubId, uint8 v, bytes32 r, bytes32 s) public {\n    bytes memory message = abi.encodePacked(uint256(1), addr, githubId);\n    bytes32 msgHash = keccak256(abi.encodePacked(\"\\x19Ethereum Signed Message:\\n84\", message));\n\n    require(admin == ecrecover(msgHash, v, r, s), \"Invalid signature\");\n    require(msg.sender == addr, \"Invalid address\");\n\n    emit NewRecord(addr, githubId);\n  }\n}\n\ncontract RepoTable {\n  event NewRecord(address indexed addr, uint256 indexed githubId);\n\n  address public admin;\n\n  constructor(address _admin){\n    admin = _admin;\n  }\n  function addRecord(address addr, uint256 githubId, uint8 v, bytes32 r, bytes32 s) public {\n    bytes memory message = abi.encodePacked(uint256(0), addr, githubId);\n    bytes32 msgHash = keccak256(abi.encodePacked(\"\\x19Ethereum Signed Message:\\n84\", message));\n\n    require(admin == ecrecover(msgHash, v, r, s), \"Invalid signature\");\n    require(Repository(addr).isRepository() == true, \"Address not a repository\");\n    require(Repository(addr).owner() == msg.sender, \"Repository not owned by sender\");\n\n    emit NewRecord(addr, githubId);\n  }\n}\n",
  "sourcePath": "/home/apoorv/projects/venlo/core/contracts/AddrTable.sol",
  "compiler": {
    "name": "solc",
    "version": "0.8.6+commit.11564f7e.Emscripten.clang"
  },
  "schemaVersion": "3.4.3",
  "updatedAt": "2022-05-12T06:47:23.646Z",
  "networkType": "ethereum",
  "devdoc": {
    "kind": "dev",
    "methods": {},
    "version": 1
  },
  "userdoc": {
    "kind": "user",
    "methods": {},
    "version": 1
  }
}