{
  "contractName": "TokenFactory",
  "abi": [
    {
      "inputs": [
        {
          "internalType": "contract ERC20",
          "name": "_parent_token",
          "type": "address"
        }
      ],
      "stateMutability": "nonpayable",
      "type": "constructor"
    },
    {
      "stateMutability": "payable",
      "type": "fallback"
    },
    {
      "stateMutability": "payable",
      "type": "receive"
    },
    {
      "inputs": [
        {
          "internalType": "string",
          "name": "_name",
          "type": "string"
        },
        {
          "internalType": "string",
          "name": "_symbol",
          "type": "string"
        }
      ],
      "name": "createToken",
      "outputs": [
        {
          "internalType": "contract CreatorToken",
          "name": "",
          "type": "address"
        }
      ],
      "stateMutability": "nonpayable",
      "type": "function"
    }
  ],
  "bytecode": "0x608060405234801561001057600080fd5b506040516137473803806137478339818101604052810190610032919061008d565b806000806101000a81548173ffffffffffffffffffffffffffffffffffffffff021916908373ffffffffffffffffffffffffffffffffffffffff1602179055505061011a565b60008151905061008781610103565b92915050565b6000602082840312156100a3576100a26100fe565b5b60006100b184828501610078565b91505092915050565b60006100c5826100de565b9050919050565b60006100d7826100ba565b9050919050565b600073ffffffffffffffffffffffffffffffffffffffff82169050919050565b600080fd5b61010c816100cc565b811461011757600080fd5b50565b61361e806101296000396000f3fe608060405260043610620000255760003560e01c80632f2f2d5614620000435762000037565b3662000037576200003562000087565b005b6200004162000087565b005b3480156200005057600080fd5b506200006f60048036038101906200006991906200024d565b620000a7565b6040516200007e919062000363565b60405180910390f35b620000916200018b565b620000a56200009f6200018d565b62000192565b565b600080838360008054906101000a900473ffffffffffffffffffffffffffffffffffffffff16604051620000db90620001c1565b620000e99392919062000380565b604051809103906000f08015801562000106573d6000803e3d6000fd5b5090508073ffffffffffffffffffffffffffffffffffffffff1663f2fde38b6200012f620001b9565b6040518263ffffffff1660e01b81526004016200014d919062000346565b600060405180830381600087803b1580156200016857600080fd5b505af11580156200017d573d6000803e3d6000fd5b505050508091505092915050565b565b600090565b3660008037600080366000845af43d6000803e8060008114620001b4573d6000f35b3d6000fd5b600033905090565b61304f806200059a83390190565b6000620001e6620001e084620003f4565b620003cb565b90508281526020810184848401111562000205576200020462000579565b5b62000212848285620004ca565b509392505050565b600082601f83011262000232576200023162000574565b5b813562000244848260208601620001cf565b91505092915050565b6000806040838503121562000267576200026662000583565b5b600083013567ffffffffffffffff8111156200028857620002876200057e565b5b62000296858286016200021a565b925050602083013567ffffffffffffffff811115620002ba57620002b96200057e565b5b620002c8858286016200021a565b9150509250929050565b620002dd8162000446565b82525050565b620002ee816200047a565b82525050565b620002ff81620004a2565b82525050565b600062000312826200042a565b6200031e818562000435565b935062000330818560208601620004d9565b6200033b8162000588565b840191505092915050565b60006020820190506200035d6000830184620002d2565b92915050565b60006020820190506200037a6000830184620002e3565b92915050565b600060608201905081810360008301526200039c818662000305565b90508181036020830152620003b2818562000305565b9050620003c36040830184620002f4565b949350505050565b6000620003d7620003ea565b9050620003e582826200050f565b919050565b6000604051905090565b600067ffffffffffffffff82111562000412576200041162000545565b5b6200041d8262000588565b9050602081019050919050565b600081519050919050565b600082825260208201905092915050565b600062000453826200045a565b9050919050565b600073ffffffffffffffffffffffffffffffffffffffff82169050919050565b600062000487826200048e565b9050919050565b60006200049b826200045a565b9050919050565b6000620004af82620004b6565b9050919050565b6000620004c3826200045a565b9050919050565b82818337600083830152505050565b60005b83811015620004f9578082015181840152602081019050620004dc565b8381111562000509576000848401525b50505050565b6200051a8262000588565b810181811067ffffffffffffffff821117156200053c576200053b62000545565b5b80604052505050565b7f4e487b7100000000000000000000000000000000000000000000000000000000600052604160045260246000fd5b600080fd5b600080fd5b600080fd5b600080fd5b6000601f19601f830116905091905056fe60806040523480156200001157600080fd5b506040516200304f3803806200304f8339818101604052810190620000379190620004df565b82828160039080519060200190620000519291906200039a565b5080600490805190602001906200006a9291906200039a565b5050506200008d62000081620000e060201b60201c565b620000e860201b60201c565b600860009054906101000a900473ffffffffffffffffffffffffffffffffffffffff169050620000c5612710620001ae60201b60201c565b620000d760006200028f60201b60201c565b5050506200087a565b600033905090565b6000600560009054906101000a900473ffffffffffffffffffffffffffffffffffffffff16905081600560006101000a81548173ffffffffffffffffffffffffffffffffffffffff021916908373ffffffffffffffffffffffffffffffffffffffff1602179055508173ffffffffffffffffffffffffffffffffffffffff168173ffffffffffffffffffffffffffffffffffffffff167f8be0079c531659141344cd1fd0a4f28419497f9722a3daafe3b4186f6b6457e060405160405180910390a35050565b620001be620000e060201b60201c565b73ffffffffffffffffffffffffffffffffffffffff16620001e46200037060201b60201c565b73ffffffffffffffffffffffffffffffffffffffff16146200023d576040517f08c379a00000000000000000000000000000000000000000000000000000000081526004016200023490620005e9565b60405180910390fd5b61271081111562000285576040517f08c379a00000000000000000000000000000000000000000000000000000000081526004016200027c90620005c7565b60405180910390fd5b8060068190555050565b6200029f620000e060201b60201c565b73ffffffffffffffffffffffffffffffffffffffff16620002c56200037060201b60201c565b73ffffffffffffffffffffffffffffffffffffffff16146200031e576040517f08c379a00000000000000000000000000000000000000000000000000000000081526004016200031590620005e9565b60405180910390fd5b61271081111562000366576040517f08c379a00000000000000000000000000000000000000000000000000000000081526004016200035d90620005c7565b60405180910390fd5b8060078190555050565b6000600560009054906101000a900473ffffffffffffffffffffffffffffffffffffffff16905090565b828054620003a890620006f9565b90600052602060002090601f016020900481019282620003cc576000855562000418565b82601f10620003e757805160ff191683800117855562000418565b8280016001018555821562000418579182015b8281111562000417578251825591602001919060010190620003fa565b5b5090506200042791906200042b565b5090565b5b80821115620004465760008160009055506001016200042c565b5090565b6000620004616200045b8462000634565b6200060b565b90508281526020810184848401111562000480576200047f620007c8565b5b6200048d848285620006c3565b509392505050565b600081519050620004a68162000860565b92915050565b600082601f830112620004c457620004c3620007c3565b5b8151620004d68482602086016200044a565b91505092915050565b600080600060608486031215620004fb57620004fa620007d2565b5b600084015167ffffffffffffffff8111156200051c576200051b620007cd565b5b6200052a86828701620004ac565b935050602084015167ffffffffffffffff8111156200054e576200054d620007cd565b5b6200055c86828701620004ac565b92505060406200056f8682870162000495565b9150509250925092565b6000620005886022836200066a565b91506200059582620007e8565b604082019050919050565b6000620005af6020836200066a565b9150620005bc8262000837565b602082019050919050565b60006020820190508181036000830152620005e28162000579565b9050919050565b600060208201905081810360008301526200060481620005a0565b9050919050565b6000620006176200062a565b90506200062582826200072f565b919050565b6000604051905090565b600067ffffffffffffffff82111562000652576200065162000794565b5b6200065d82620007d7565b9050602081019050919050565b600082825260208201905092915050565b60006200068882620006a3565b9050919050565b60006200069c826200067b565b9050919050565b600073ffffffffffffffffffffffffffffffffffffffff82169050919050565b60005b83811015620006e3578082015181840152602081019050620006c6565b83811115620006f3576000848401525b50505050565b600060028204905060018216806200071257607f821691505b6020821081141562000729576200072862000765565b5b50919050565b6200073a82620007d7565b810181811067ffffffffffffffff821117156200075c576200075b62000794565b5b80604052505050565b7f4e487b7100000000000000000000000000000000000000000000000000000000600052602260045260246000fd5b7f4e487b7100000000000000000000000000000000000000000000000000000000600052604160045260246000fd5b600080fd5b600080fd5b600080fd5b600080fd5b6000601f19601f8301169050919050565b7f43726561746f7220726577617264732063616e6e6f742065786365656420313060008201527f3025000000000000000000000000000000000000000000000000000000000000602082015250565b7f4f776e61626c653a2063616c6c6572206973206e6f7420746865206f776e6572600082015250565b6200086b816200068f565b81146200087757600080fd5b50565b6127c5806200088a6000396000f3fe608060405234801561001057600080fd5b50600436106101375760003560e01c8063715018a6116100b8578063a0712d681161007c578063a0712d6814610364578063a457c2d714610394578063a9059cbb146103c4578063db19f222146103f4578063dd62ed3e14610410578063f2fde38b1461044057610137565b8063715018a6146102d257806388ed147c146102dc5780638da5cb5b1461030c57806395d89b411461032a57806397e508181461034857610137565b806323b872dd116100ff57806323b872dd146101f4578063313ce56714610224578063395093511461024257806342966c681461027257806370a08231146102a257610137565b806301ce12041461013c57806306fdde0314610158578063095ea7b3146101765780630c509436146101a657806318160ddd146101d6575b600080fd5b61015660048036038101906101519190611a7d565b61045c565b005b610160610527565b60405161016d9190611e2f565b60405180910390f35b610190600480360381019061018b9190611a10565b6105b9565b60405161019d9190611e14565b60405180910390f35b6101c060048036038101906101bb9190611a7d565b6105d7565b6040516101cd9190612031565b60405180910390f35b6101de610605565b6040516101eb9190612031565b60405180910390f35b61020e600480360381019061020991906119bd565b61060f565b60405161021b9190611e14565b60405180910390f35b61022c6106d0565b604051610239919061204c565b60405180910390f35b61025c60048036038101906102579190611a10565b6106d9565b6040516102699190611e14565b60405180910390f35b61028c60048036038101906102879190611a7d565b610785565b6040516102999190611e14565b60405180910390f35b6102bc60048036038101906102b79190611950565b610824565b6040516102c99190612031565b60405180910390f35b6102da61086c565b005b6102f660048036038101906102f19190611a7d565b6108f4565b6040516103039190612031565b60405180910390f35b610314610922565b6040516103219190611d99565b60405180910390f35b61033261094c565b60405161033f9190611e2f565b60405180910390f35b610362600480360381019061035d9190611ad7565b6109de565b005b61037e60048036038101906103799190611a7d565b610af6565b60405161038b9190611e14565b60405180910390f35b6103ae60048036038101906103a99190611a10565b610d0b565b6040516103bb9190611e14565b60405180910390f35b6103de60048036038101906103d99190611a10565b610df6565b6040516103eb9190611e14565b60405180910390f35b61040e60048036038101906104099190611a7d565b610e57565b005b61042a6004803603810190610425919061197d565b610f22565b6040516104379190612031565b60405180910390f35b61045a60048036038101906104559190611950565b610fa9565b005b6104646110a1565b73ffffffffffffffffffffffffffffffffffffffff16610482610922565b73ffffffffffffffffffffffffffffffffffffffff16146104d8576040517f08c379a00000000000000000000000000000000000000000000000000000000081526004016104cf90611f51565b60405180910390fd5b61271081111561051d576040517f08c379a000000000000000000000000000000000000000000000000000000000815260040161051490611f11565b60405180910390fd5b8060068190555050565b60606003805461053690612220565b80601f016020809104026020016040519081016040528092919081815260200182805461056290612220565b80156105af5780601f10610584576101008083540402835291602001916105af565b820191906000526020600020905b81548152906001019060200180831161059257829003601f168201915b5050505050905090565b60006105cd6105c66110a1565b84846110a9565b6001905092915050565b60006105e1610605565b826105ea610605565b6105f49190612083565b6105fe9190612164565b9050919050565b6000600254905090565b60008061271060075484610623919061210a565b61062d91906120d9565b9050610645858583866106409190612164565b611274565b61065785610651610922565b83611274565b600061066a866106656110a1565b610f22565b9050838110156106af576040517f08c379a00000000000000000000000000000000000000000000000000000000081526004016106a690611f31565b60405180910390fd5b6106c3866106bb6110a1565b8684036110a9565b6001925050509392505050565b60006012905090565b600061077b6106e66110a1565b8484600160006106f46110a1565b73ffffffffffffffffffffffffffffffffffffffff1673ffffffffffffffffffffffffffffffffffffffff16815260200190815260200160002060008873ffffffffffffffffffffffffffffffffffffffff1673ffffffffffffffffffffffffffffffffffffffff168152602001908152602001600020546107769190612083565b6110a9565b6001905092915050565b60006107986107926110a1565b836114f5565b6107a06110a1565b73ffffffffffffffffffffffffffffffffffffffff166108fc6107c2846108f4565b9081150290604051600060405180830381858888f1935050505061081b576040517f08c379a000000000000000000000000000000000000000000000000000000000815260040161081290611fd1565b60405180910390fd5b60019050919050565b60008060008373ffffffffffffffffffffffffffffffffffffffff1673ffffffffffffffffffffffffffffffffffffffff168152602001908152602001600020549050919050565b6108746110a1565b73ffffffffffffffffffffffffffffffffffffffff16610892610922565b73ffffffffffffffffffffffffffffffffffffffff16146108e8576040517f08c379a00000000000000000000000000000000000000000000000000000000081526004016108df90611f51565b60405180910390fd5b6108f260006116cc565b565b60006108fe610605565b82610907610605565b6109119190612083565b61091b9190612164565b9050919050565b6000600560009054906101000a900473ffffffffffffffffffffffffffffffffffffffff16905090565b60606004805461095b90612220565b80601f016020809104026020016040519081016040528092919081815260200182805461098790612220565b80156109d45780601f106109a9576101008083540402835291602001916109d4565b820191906000526020600020905b8154815290600101906020018083116109b757829003601f168201915b5050505050905090565b6109e66110a1565b73ffffffffffffffffffffffffffffffffffffffff16610a04610922565b73ffffffffffffffffffffffffffffffffffffffff1614610a5a576040517f08c379a0000000000000000000000000000000000000000000000000000000008152600401610a5190611f51565b60405180910390fd5b612710821115610a9f576040517f08c379a0000000000000000000000000000000000000000000000000000000008152600401610a9690611f11565b60405180910390fd5b612710811115610ae4576040517f08c379a0000000000000000000000000000000000000000000000000000000008152600401610adb90611f11565b60405180910390fd5b81600681905550806007819055505050565b600080610b02836105d7565b905080600860009054906101000a900473ffffffffffffffffffffffffffffffffffffffff1673ffffffffffffffffffffffffffffffffffffffff1663dd62ed3e610b4b6110a1565b60006040518363ffffffff1660e01b8152600401610b6a929190611db4565b60206040518083038186803b158015610b8257600080fd5b505afa158015610b96573d6000803e3d6000fd5b505050506040513d601f19601f82011682018060405250810190610bba9190611aaa565b1015610bfb576040517f08c379a0000000000000000000000000000000000000000000000000000000008152600401610bf290611e91565b60405180910390fd5b600860009054906101000a900473ffffffffffffffffffffffffffffffffffffffff1673ffffffffffffffffffffffffffffffffffffffff166323b872dd610c416110a1565b30846040518463ffffffff1660e01b8152600401610c6193929190611ddd565b602060405180830381600087803b158015610c7b57600080fd5b505af1158015610c8f573d6000803e3d6000fd5b505050506040513d601f19601f82011682018060405250810190610cb39190611a50565b50600061271060065485610cc7919061210a565b610cd191906120d9565b9050610cef610cde6110a1565b8286610cea9190612164565b611792565b610d00610cfa610922565b82611792565b600192505050919050565b60008060016000610d1a6110a1565b73ffffffffffffffffffffffffffffffffffffffff1673ffffffffffffffffffffffffffffffffffffffff16815260200190815260200160002060008573ffffffffffffffffffffffffffffffffffffffff1673ffffffffffffffffffffffffffffffffffffffff16815260200190815260200160002054905082811015610dd7576040517f08c379a0000000000000000000000000000000000000000000000000000000008152600401610dce90611ff1565b60405180910390fd5b610deb610de26110a1565b858584036110a9565b600191505092915050565b60008061271060075484610e0a919061210a565b610e1491906120d9565b9050610e33610e216110a1565b858386610e2e9190612164565b611274565b610e4c610e3e6110a1565b610e46610922565b83611274565b600191505092915050565b610e5f6110a1565b73ffffffffffffffffffffffffffffffffffffffff16610e7d610922565b73ffffffffffffffffffffffffffffffffffffffff1614610ed3576040517f08c379a0000000000000000000000000000000000000000000000000000000008152600401610eca90611f51565b60405180910390fd5b612710811115610f18576040517f08c379a0000000000000000000000000000000000000000000000000000000008152600401610f0f90611f11565b60405180910390fd5b8060078190555050565b6000600160008473ffffffffffffffffffffffffffffffffffffffff1673ffffffffffffffffffffffffffffffffffffffff16815260200190815260200160002060008373ffffffffffffffffffffffffffffffffffffffff1673ffffffffffffffffffffffffffffffffffffffff16815260200190815260200160002054905092915050565b610fb16110a1565b73ffffffffffffffffffffffffffffffffffffffff16610fcf610922565b73ffffffffffffffffffffffffffffffffffffffff1614611025576040517f08c379a000000000000000000000000000000000000000000000000000000000815260040161101c90611f51565b60405180910390fd5b600073ffffffffffffffffffffffffffffffffffffffff168173ffffffffffffffffffffffffffffffffffffffff161415611095576040517f08c379a000000000000000000000000000000000000000000000000000000000815260040161108c90611eb1565b60405180910390fd5b61109e816116cc565b50565b600033905090565b600073ffffffffffffffffffffffffffffffffffffffff168373ffffffffffffffffffffffffffffffffffffffff161415611119576040517f08c379a000000000000000000000000000000000000000000000000000000000815260040161111090611fb1565b60405180910390fd5b600073ffffffffffffffffffffffffffffffffffffffff168273ffffffffffffffffffffffffffffffffffffffff161415611189576040517f08c379a000000000000000000000000000000000000000000000000000000000815260040161118090611ed1565b60405180910390fd5b80600160008573ffffffffffffffffffffffffffffffffffffffff1673ffffffffffffffffffffffffffffffffffffffff16815260200190815260200160002060008473ffffffffffffffffffffffffffffffffffffffff1673ffffffffffffffffffffffffffffffffffffffff168152602001908152602001600020819055508173ffffffffffffffffffffffffffffffffffffffff168373ffffffffffffffffffffffffffffffffffffffff167f8c5be1e5ebec7d5bd14f71427d1e84f3dd0314c0f7b2291e5b200ac8c7c3b925836040516112679190612031565b60405180910390a3505050565b600073ffffffffffffffffffffffffffffffffffffffff168373ffffffffffffffffffffffffffffffffffffffff1614156112e4576040517f08c379a00000000000000000000000000000000000000000000000000000000081526004016112db90611f91565b60405180910390fd5b600073ffffffffffffffffffffffffffffffffffffffff168273ffffffffffffffffffffffffffffffffffffffff161415611354576040517f08c379a000000000000000000000000000000000000000000000000000000000815260040161134b90611e51565b60405180910390fd5b61135f8383836118f2565b60008060008573ffffffffffffffffffffffffffffffffffffffff1673ffffffffffffffffffffffffffffffffffffffff168152602001908152602001600020549050818110156113e5576040517f08c379a00000000000000000000000000000000000000000000000000000000081526004016113dc90611ef1565b60405180910390fd5b8181036000808673ffffffffffffffffffffffffffffffffffffffff1673ffffffffffffffffffffffffffffffffffffffff16815260200190815260200160002081905550816000808573ffffffffffffffffffffffffffffffffffffffff1673ffffffffffffffffffffffffffffffffffffffff16815260200190815260200160002060008282546114789190612083565b925050819055508273ffffffffffffffffffffffffffffffffffffffff168473ffffffffffffffffffffffffffffffffffffffff167fddf252ad1be2c89b69c2b068fc378daa952ba7f163c4a11628f55a4df523b3ef846040516114dc9190612031565b60405180910390a36114ef8484846118f7565b50505050565b600073ffffffffffffffffffffffffffffffffffffffff168273ffffffffffffffffffffffffffffffffffffffff161415611565576040517f08c379a000000000000000000000000000000000000000000000000000000000815260040161155c90611f71565b60405180910390fd5b611571826000836118f2565b60008060008473ffffffffffffffffffffffffffffffffffffffff1673ffffffffffffffffffffffffffffffffffffffff168152602001908152602001600020549050818110156115f7576040517f08c379a00000000000000000000000000000000000000000000000000000000081526004016115ee90611e71565b60405180910390fd5b8181036000808573ffffffffffffffffffffffffffffffffffffffff1673ffffffffffffffffffffffffffffffffffffffff16815260200190815260200160002081905550816002600082825461164e9190612164565b92505081905550600073ffffffffffffffffffffffffffffffffffffffff168373ffffffffffffffffffffffffffffffffffffffff167fddf252ad1be2c89b69c2b068fc378daa952ba7f163c4a11628f55a4df523b3ef846040516116b39190612031565b60405180910390a36116c7836000846118f7565b505050565b6000600560009054906101000a900473ffffffffffffffffffffffffffffffffffffffff16905081600560006101000a81548173ffffffffffffffffffffffffffffffffffffffff021916908373ffffffffffffffffffffffffffffffffffffffff1602179055508173ffffffffffffffffffffffffffffffffffffffff168173ffffffffffffffffffffffffffffffffffffffff167f8be0079c531659141344cd1fd0a4f28419497f9722a3daafe3b4186f6b6457e060405160405180910390a35050565b600073ffffffffffffffffffffffffffffffffffffffff168273ffffffffffffffffffffffffffffffffffffffff161415611802576040517f08c379a00000000000000000000000000000000000000000000000000000000081526004016117f990612011565b60405180910390fd5b61180e600083836118f2565b80600260008282546118209190612083565b92505081905550806000808473ffffffffffffffffffffffffffffffffffffffff1673ffffffffffffffffffffffffffffffffffffffff16815260200190815260200160002060008282546118759190612083565b925050819055508173ffffffffffffffffffffffffffffffffffffffff16600073ffffffffffffffffffffffffffffffffffffffff167fddf252ad1be2c89b69c2b068fc378daa952ba7f163c4a11628f55a4df523b3ef836040516118da9190612031565b60405180910390a36118ee600083836118f7565b5050565b505050565b505050565b60008135905061190b8161274a565b92915050565b60008151905061192081612761565b92915050565b60008135905061193581612778565b92915050565b60008151905061194a81612778565b92915050565b600060208284031215611966576119656122df565b5b6000611974848285016118fc565b91505092915050565b60008060408385031215611994576119936122df565b5b60006119a2858286016118fc565b92505060206119b3858286016118fc565b9150509250929050565b6000806000606084860312156119d6576119d56122df565b5b60006119e4868287016118fc565b93505060206119f5868287016118fc565b9250506040611a0686828701611926565b9150509250925092565b60008060408385031215611a2757611a266122df565b5b6000611a35858286016118fc565b9250506020611a4685828601611926565b9150509250929050565b600060208284031215611a6657611a656122df565b5b6000611a7484828501611911565b91505092915050565b600060208284031215611a9357611a926122df565b5b6000611aa184828501611926565b91505092915050565b600060208284031215611ac057611abf6122df565b5b6000611ace8482850161193b565b91505092915050565b60008060408385031215611aee57611aed6122df565b5b6000611afc85828601611926565b9250506020611b0d85828601611926565b9150509250929050565b611b2081612198565b82525050565b611b2f816121aa565b82525050565b6000611b4082612067565b611b4a8185612072565b9350611b5a8185602086016121ed565b611b63816122e4565b840191505092915050565b6000611b7b602383612072565b9150611b86826122f5565b604082019050919050565b6000611b9e602283612072565b9150611ba982612344565b604082019050919050565b6000611bc1602d83612072565b9150611bcc82612393565b604082019050919050565b6000611be4602683612072565b9150611bef826123e2565b604082019050919050565b6000611c07602283612072565b9150611c1282612431565b604082019050919050565b6000611c2a602683612072565b9150611c3582612480565b604082019050919050565b6000611c4d602283612072565b9150611c58826124cf565b604082019050919050565b6000611c70602883612072565b9150611c7b8261251e565b604082019050919050565b6000611c93602083612072565b9150611c9e8261256d565b602082019050919050565b6000611cb6602183612072565b9150611cc182612596565b604082019050919050565b6000611cd9602583612072565b9150611ce4826125e5565b604082019050919050565b6000611cfc602483612072565b9150611d0782612634565b604082019050919050565b6000611d1f602983612072565b9150611d2a82612683565b604082019050919050565b6000611d42602583612072565b9150611d4d826126d2565b604082019050919050565b6000611d65601f83612072565b9150611d7082612721565b602082019050919050565b611d84816121d6565b82525050565b611d93816121e0565b82525050565b6000602082019050611dae6000830184611b17565b92915050565b6000604082019050611dc96000830185611b17565b611dd66020830184611b17565b9392505050565b6000606082019050611df26000830186611b17565b611dff6020830185611b17565b611e0c6040830184611d7b565b949350505050565b6000602082019050611e296000830184611b26565b92915050565b60006020820190508181036000830152611e498184611b35565b905092915050565b60006020820190508181036000830152611e6a81611b6e565b9050919050565b60006020820190508181036000830152611e8a81611b91565b9050919050565b60006020820190508181036000830152611eaa81611bb4565b9050919050565b60006020820190508181036000830152611eca81611bd7565b9050919050565b60006020820190508181036000830152611eea81611bfa565b9050919050565b60006020820190508181036000830152611f0a81611c1d565b9050919050565b60006020820190508181036000830152611f2a81611c40565b9050919050565b60006020820190508181036000830152611f4a81611c63565b9050919050565b60006020820190508181036000830152611f6a81611c86565b9050919050565b60006020820190508181036000830152611f8a81611ca9565b9050919050565b60006020820190508181036000830152611faa81611ccc565b9050919050565b60006020820190508181036000830152611fca81611cef565b9050919050565b60006020820190508181036000830152611fea81611d12565b9050919050565b6000602082019050818103600083015261200a81611d35565b9050919050565b6000602082019050818103600083015261202a81611d58565b9050919050565b60006020820190506120466000830184611d7b565b92915050565b60006020820190506120616000830184611d8a565b92915050565b600081519050919050565b600082825260208201905092915050565b600061208e826121d6565b9150612099836121d6565b9250827fffffffffffffffffffffffffffffffffffffffffffffffffffffffffffffffff038211156120ce576120cd612252565b5b828201905092915050565b60006120e4826121d6565b91506120ef836121d6565b9250826120ff576120fe612281565b5b828204905092915050565b6000612115826121d6565b9150612120836121d6565b9250817fffffffffffffffffffffffffffffffffffffffffffffffffffffffffffffffff048311821515161561215957612158612252565b5b828202905092915050565b600061216f826121d6565b915061217a836121d6565b92508282101561218d5761218c612252565b5b828203905092915050565b60006121a3826121b6565b9050919050565b60008115159050919050565b600073ffffffffffffffffffffffffffffffffffffffff82169050919050565b6000819050919050565b600060ff82169050919050565b60005b8381101561220b5780820151818401526020810190506121f0565b8381111561221a576000848401525b50505050565b6000600282049050600182168061223857607f821691505b6020821081141561224c5761224b6122b0565b5b50919050565b7f4e487b7100000000000000000000000000000000000000000000000000000000600052601160045260246000fd5b7f4e487b7100000000000000000000000000000000000000000000000000000000600052601260045260246000fd5b7f4e487b7100000000000000000000000000000000000000000000000000000000600052602260045260246000fd5b600080fd5b6000601f19601f8301169050919050565b7f45524332303a207472616e7366657220746f20746865207a65726f206164647260008201527f6573730000000000000000000000000000000000000000000000000000000000602082015250565b7f45524332303a206275726e20616d6f756e7420657863656564732062616c616e60008201527f6365000000000000000000000000000000000000000000000000000000000000602082015250565b7f45524332303a2043616e6e6f74206d696e7420746f6b656e732c20696e73756660008201527f66696369656e742066756e647300000000000000000000000000000000000000602082015250565b7f4f776e61626c653a206e6577206f776e657220697320746865207a65726f206160008201527f6464726573730000000000000000000000000000000000000000000000000000602082015250565b7f45524332303a20617070726f766520746f20746865207a65726f20616464726560008201527f7373000000000000000000000000000000000000000000000000000000000000602082015250565b7f45524332303a207472616e7366657220616d6f756e742065786365656473206260008201527f616c616e63650000000000000000000000000000000000000000000000000000602082015250565b7f43726561746f7220726577617264732063616e6e6f742065786365656420313060008201527f3025000000000000000000000000000000000000000000000000000000000000602082015250565b7f45524332303a207472616e7366657220616d6f756e742065786365656473206160008201527f6c6c6f77616e6365000000000000000000000000000000000000000000000000602082015250565b7f4f776e61626c653a2063616c6c6572206973206e6f7420746865206f776e6572600082015250565b7f45524332303a206275726e2066726f6d20746865207a65726f2061646472657360008201527f7300000000000000000000000000000000000000000000000000000000000000602082015250565b7f45524332303a207472616e736665722066726f6d20746865207a65726f20616460008201527f6472657373000000000000000000000000000000000000000000000000000000602082015250565b7f45524332303a20617070726f76652066726f6d20746865207a65726f2061646460008201527f7265737300000000000000000000000000000000000000000000000000000000602082015250565b7f45524332303a20436f756c64206e6f74207472616e73666572206275726e696e60008201527f6720726577617264730000000000000000000000000000000000000000000000602082015250565b7f45524332303a2064656372656173656420616c6c6f77616e63652062656c6f7760008201527f207a65726f000000000000000000000000000000000000000000000000000000602082015250565b7f45524332303a206d696e7420746f20746865207a65726f206164647265737300600082015250565b61275381612198565b811461275e57600080fd5b50565b61276a816121aa565b811461277557600080fd5b50565b612781816121d6565b811461278c57600080fd5b5056fea2646970667358221220a455a2f8b1e70591570e8539c2e7862dbbbf07ccadb111eea9a7010beb8dde6a64736f6c63430008060033a26469706673582212205a6535f3c789a2b3189ab442523a6987a0ef136a5f3b6562705e637fc4de0b5564736f6c63430008060033",
  "immutableReferences": {},
  "source": "pragma solidity ^0.8.0;\n\nimport \"@openzeppelin/contracts/utils/Context.sol\";\nimport \"@openzeppelin/contracts/proxy/Proxy.sol\";\n\nimport \"./CreatorToken.sol\";\nimport \"./Ven.sol\";\n\ncontract TokenFactory is Proxy, Context {\n    ERC20 parent_token;\n\n    constructor(ERC20 _parent_token) {\n        parent_token = _parent_token;\n    }\n    function createToken(string memory _name, string memory _symbol) public returns (CreatorToken) {\n        CreatorToken token = new CreatorToken(_name, _symbol, parent_token);\n        token.transferOwnership(_msgSender());\n        return token;\n    }\n    function _implementation() internal view override returns (address) {\n\n    }\n}\n",
  "sourcePath": "/home/apoorv/projects/venlo/core/contracts/TokenFactory.sol",
  "compiler": {
    "name": "solc",
    "version": "0.8.6+commit.11564f7e.Emscripten.clang"
  },
  "schemaVersion": "3.4.3",
  "updatedAt": "2021-10-08T11:56:11.130Z",
  "devdoc": {
    "kind": "dev",
    "methods": {},
    "version": 1
  },
  "userdoc": {
    "kind": "user",
    "methods": {},
    "version": 1
  }
}