{
  "contractName": "UserTable",
  "abi": [
    {
      "inputs": [
        {
          "internalType": "address",
          "name": "_admin",
          "type": "address"
        }
      ],
      "stateMutability": "nonpayable",
      "type": "constructor"
    },
    {
      "anonymous": false,
      "inputs": [
        {
          "indexed": true,
          "internalType": "address",
          "name": "addr",
          "type": "address"
        },
        {
          "indexed": true,
          "internalType": "uint256",
          "name": "githubId",
          "type": "uint256"
        }
      ],
      "name": "NewRecord",
      "type": "event"
    },
    {
      "inputs": [],
      "name": "admin",
      "outputs": [
        {
          "internalType": "address",
          "name": "",
          "type": "address"
        }
      ],
      "stateMutability": "view",
      "type": "function",
      "constant": true
    },
    {
      "inputs": [
        {
          "internalType": "address",
          "name": "addr",
          "type": "address"
        },
        {
          "internalType": "uint256",
          "name": "githubId",
          "type": "uint256"
        },
        {
          "internalType": "uint8",
          "name": "v",
          "type": "uint8"
        },
        {
          "internalType": "bytes32",
          "name": "r",
          "type": "bytes32"
        },
        {
          "internalType": "bytes32",
          "name": "s",
          "type": "bytes32"
        }
      ],
      "name": "addRecord",
      "outputs": [],
      "stateMutability": "nonpayable",
      "type": "function"
    }
  ],
  "bytecode": "0x608060405234801561001057600080fd5b506040516106fa3803806106fa8339818101604052810190610032919061008d565b806000806101000a81548173ffffffffffffffffffffffffffffffffffffffff021916908373ffffffffffffffffffffffffffffffffffffffff16021790555050610108565b600081519050610087816100f1565b92915050565b6000602082840312156100a3576100a26100ec565b5b60006100b184828501610078565b91505092915050565b60006100c5826100cc565b9050919050565b600073ffffffffffffffffffffffffffffffffffffffff82169050919050565b600080fd5b6100fa816100ba565b811461010557600080fd5b50565b6105e3806101176000396000f3fe608060405234801561001057600080fd5b50600436106100365760003560e01c8063c29e1cbe1461003b578063f851a44014610057575b600080fd5b61005560048036038101906100509190610269565b610075565b005b61005f6101f1565b60405161006c91906103e1565b60405180910390f35b6000858560405160200161008a929190610393565b60405160208183030381529060405290506000816040516020016100ae91906103bf565b604051602081830303815290604052805190602001209050600181868686604051600081526020016040526040516100e994939291906103fc565b6020604051602081039080840390855afa15801561010b573d6000803e3d6000fd5b5050506020604051035173ffffffffffffffffffffffffffffffffffffffff1660008054906101000a900473ffffffffffffffffffffffffffffffffffffffff1673ffffffffffffffffffffffffffffffffffffffff161461016c57600080fd5b8673ffffffffffffffffffffffffffffffffffffffff163373ffffffffffffffffffffffffffffffffffffffff16146101a457600080fd5b858773ffffffffffffffffffffffffffffffffffffffff167faae60e31e02e72b4542a994da3162e41b1fea88ed072dabe428d89e960bbc56960405160405180910390a350505050505050565b60008054906101000a900473ffffffffffffffffffffffffffffffffffffffff1681565b60008135905061022481610551565b92915050565b60008135905061023981610568565b92915050565b60008135905061024e8161057f565b92915050565b60008135905061026381610596565b92915050565b600080600080600060a0868803121561028557610284610516565b5b600061029388828901610215565b95505060206102a48882890161023f565b94505060406102b588828901610254565b93505060606102c68882890161022a565b92505060806102d78882890161022a565b9150509295509295909350565b6102ed81610462565b82525050565b6103046102ff82610462565b6104e8565b82525050565b61031381610474565b82525050565b600061032482610441565b61032e818561044c565b935061033e8185602086016104b5565b80840191505092915050565b6000610357601c83610457565b915061036282610528565b601c82019050919050565b61037e6103798261049e565b61050c565b82525050565b61038d816104a8565b82525050565b600061039f82856102f3565b6014820191506103af828461036d565b6020820191508190509392505050565b60006103ca8261034a565b91506103d68284610319565b915081905092915050565b60006020820190506103f660008301846102e4565b92915050565b6000608082019050610411600083018761030a565b61041e6020830186610384565b61042b604083018561030a565b610438606083018461030a565b95945050505050565b600081519050919050565b600081905092915050565b600081905092915050565b600061046d8261047e565b9050919050565b6000819050919050565b600073ffffffffffffffffffffffffffffffffffffffff82169050919050565b6000819050919050565b600060ff82169050919050565b60005b838110156104d35780820151818401526020810190506104b8565b838111156104e2576000848401525b50505050565b60006104f3826104fa565b9050919050565b60006105058261051b565b9050919050565b6000819050919050565b600080fd5b60008160601b9050919050565b7f19457468657265756d205369676e6564204d6573736167653a0a353200000000600082015250565b61055a81610462565b811461056557600080fd5b50565b61057181610474565b811461057c57600080fd5b50565b6105888161049e565b811461059357600080fd5b50565b61059f816104a8565b81146105aa57600080fd5b5056fea2646970667358221220f3af651e9d5e5d523d7e926de49df01b17c9fa8743f86ffddd1e7feddc97e40b64736f6c63430008060033",
  "immutableReferences": {},
  "source": "// SPDX-License-Identifier: MIT\npragma solidity ^0.8.0;\n\nimport \"./Repository.sol\";\n\ncontract UserTable {\n  event NewRecord(address indexed addr, uint256 indexed githubId);\n\n  address public admin;\n\n  constructor(address _admin){\n    admin = _admin;\n  }\n  function addRecord(address addr, uint256 githubId, uint8 v, bytes32 r, bytes32 s) public {\n    bytes memory message = abi.encodePacked(addr, githubId);\n    bytes32 msgHash = keccak256(abi.encodePacked(\"\\x19Ethereum Signed Message:\\n52\", message));\n\n    require(admin == ecrecover(msgHash, v, r, s));\n    require(msg.sender == addr);\n\n    emit NewRecord(addr, githubId);\n  }\n}\n\ncontract RepoTable {\n  event NewRecord(address indexed addr, uint256 indexed githubId);\n\n  address public admin;\n\n  constructor(address _admin){\n    admin = _admin;\n  }\n  function addRecord(address addr, uint256 githubId, uint8 v, bytes32 r, bytes32 s) public {\n    bytes memory message = abi.encodePacked(addr, githubId);\n    bytes32 msgHash = keccak256(abi.encodePacked(\"\\x19Ethereum Signed Message:\\n52\", message));\n\n    require(admin == ecrecover(msgHash, v, r, s));\n    require(Repository(addr).isRepository() == true);\n    require(Repository(addr).owner() == msg.sender);\n\n    emit NewRecord(addr, githubId);\n  }\n}\n",
  "sourcePath": "/home/apoorv/projects/venlo/core/contracts/AddrTable.sol",
  "compiler": {
    "name": "solc",
    "version": "0.8.6+commit.11564f7e.Emscripten.clang"
  },
  "schemaVersion": "3.4.3",
  "updatedAt": "2022-05-11T17:34:32.733Z",
  "networkType": "ethereum",
  "devdoc": {
    "kind": "dev",
    "methods": {},
    "version": 1
  },
  "userdoc": {
    "kind": "user",
    "methods": {},
    "version": 1
  }
}