{
  "contractName": "Verifier",
  "abi": [
    {
      "inputs": [
        {
          "internalType": "string",
          "name": "message",
          "type": "string"
        },
        {
          "internalType": "uint8",
          "name": "v",
          "type": "uint8"
        },
        {
          "internalType": "bytes32",
          "name": "r",
          "type": "bytes32"
        },
        {
          "internalType": "bytes32",
          "name": "s",
          "type": "bytes32"
        }
      ],
      "name": "verifyString",
      "outputs": [
        {
          "internalType": "address",
          "name": "signer",
          "type": "address"
        }
      ],
      "stateMutability": "pure",
      "type": "function"
    }
  ],
  "bytecode": "0x608060405234801561001057600080fd5b506107b4806100206000396000f3fe608060405234801561001057600080fd5b506004361061002b5760003560e01c8063d2c3fbb714610030575b600080fd5b61004a600480360381019061004591906102a9565b610060565b60405161005791906103ae565b60405180910390f35b6000806040518060400160405280602081526020017f19457468657265756d205369676e6564204d6573736167653a0a303030303030815250905060008087519050603983019150620f423f8111156100b857600080fd5b600080620186a090505b6000811461015e57600081846100d891906104d0565b9050600081141561010257600083141561010157600a826100f991906104d0565b9150506100c2565b5b828061010d90610655565b935050818161011c9190610501565b84610127919061055b565b9350600a8261013691906104d0565b9150603081610145919061047a565b9050848061015290610655565b955050808553506100c2565b600082141561017057601b9150610180565b601a8261017d919061047a565b91505b8185526000858b60405160200161019892919061038a565b6040516020818303038152906040528051906020012090506001818b8b8b604051600081526020016040526040516101d394939291906103c9565b6020604051602081039080840390855afa1580156101f5573d6000803e3d6000fd5b505050602060405103519650505050505050949350505050565b600061022261021d84610433565b61040e565b90508281526020810184848401111561023e5761023d610730565b5b6102498482856105e2565b509392505050565b60008135905061026081610750565b92915050565b600082601f83011261027b5761027a61072b565b5b813561028b84826020860161020f565b91505092915050565b6000813590506102a381610767565b92915050565b600080600080608085870312156102c3576102c261073a565b5b600085013567ffffffffffffffff8111156102e1576102e0610735565b5b6102ed87828801610266565b94505060206102fe87828801610294565b935050604061030f87828801610251565b925050606061032087828801610251565b91505092959194509250565b6103358161058f565b82525050565b610344816105a1565b82525050565b600061035582610464565b61035f818561046f565b935061036f8185602086016105f1565b80840191505092915050565b610384816105d5565b82525050565b6000610396828561034a565b91506103a2828461034a565b91508190509392505050565b60006020820190506103c3600083018461032c565b92915050565b60006080820190506103de600083018761033b565b6103eb602083018661037b565b6103f8604083018561033b565b610405606083018461033b565b95945050505050565b6000610418610429565b90506104248282610624565b919050565b6000604051905090565b600067ffffffffffffffff82111561044e5761044d6106fc565b5b6104578261073f565b9050602081019050919050565b600081519050919050565b600081905092915050565b6000610485826105cb565b9150610490836105cb565b9250827fffffffffffffffffffffffffffffffffffffffffffffffffffffffffffffffff038211156104c5576104c461069e565b5b828201905092915050565b60006104db826105cb565b91506104e6836105cb565b9250826104f6576104f56106cd565b5b828204905092915050565b600061050c826105cb565b9150610517836105cb565b9250817fffffffffffffffffffffffffffffffffffffffffffffffffffffffffffffffff04831182151516156105505761054f61069e565b5b828202905092915050565b6000610566826105cb565b9150610571836105cb565b9250828210156105845761058361069e565b5b828203905092915050565b600061059a826105ab565b9050919050565b6000819050919050565b600073ffffffffffffffffffffffffffffffffffffffff82169050919050565b6000819050919050565b600060ff82169050919050565b82818337600083830152505050565b60005b8381101561060f5780820151818401526020810190506105f4565b8381111561061e576000848401525b50505050565b61062d8261073f565b810181811067ffffffffffffffff8211171561064c5761064b6106fc565b5b80604052505050565b6000610660826105cb565b91507fffffffffffffffffffffffffffffffffffffffffffffffffffffffffffffffff8214156106935761069261069e565b5b600182019050919050565b7f4e487b7100000000000000000000000000000000000000000000000000000000600052601160045260246000fd5b7f4e487b7100000000000000000000000000000000000000000000000000000000600052601260045260246000fd5b7f4e487b7100000000000000000000000000000000000000000000000000000000600052604160045260246000fd5b600080fd5b600080fd5b600080fd5b600080fd5b6000601f19601f8301169050919050565b610759816105a1565b811461076457600080fd5b50565b610770816105d5565b811461077b57600080fd5b5056fea2646970667358221220cca9635405769d74045a35880ee70b12def6feae7245ba539b943ce6bd5d0c9364736f6c63430008060033",
  "immutableReferences": {},
  "source": "// SPDX-License-Identifier: MIT\npragma solidity ^0.8.0;\n\ncontract Verifier {\n  // Returns the address that signed a given string message\n  function verifyString(string memory message, uint8 v, bytes32 r, bytes32 s) public pure returns (address signer) {\n\n    // The message header; we will fill in the length next\n    string memory header = \"\\x19Ethereum Signed Message:\\n000000\";\n\n    uint256 lengthOffset;\n    uint256 length;\n\n    assembly {\n      // The first word of a string is its length\n      length := mload(message)\n      // The beginning of the base-10 message length in the prefix\n      lengthOffset := add(header, 57)\n    }\n\n    // Maximum length we support\n    require(length <= 999999);\n\n    // The length of the message's length in base-10\n    uint256 lengthLength = 0;\n\n    // The divisor to get the next left-most message length digit\n    uint256 divisor = 100000;\n\n    // Move one digit of the message length to the right at a time\n    while (divisor != 0) {\n\n      // The place value at the divisor\n      uint256 digit = length / divisor;\n\n      if (digit == 0) {\n        // Skip leading zeros\n        if (lengthLength == 0) {\n          divisor /= 10;\n          continue;\n        }\n      }\n      // Found a non-zero digit or non-leading zero digit\n      lengthLength++;\n\n      // Remove this digit from the message length's current value\n      length -= digit * divisor;\n\n      // Shift our base-10 divisor over\n      divisor /= 10;\n\n      // Convert the digit to its ASCII representation (man ascii)\n      digit += 0x30;\n      // Move to the next character and write the digit\n      lengthOffset++;\n\n      assembly {\n        mstore8(lengthOffset, digit)\n      }\n    }\n\n    // The null string requires exactly 1 zero (unskip 1 leading 0)\n    if (lengthLength == 0) {\n      lengthLength = 1 + 0x19 + 1;\n    } else {\n      lengthLength += 1 + 0x19;\n    }\n\n    // Truncate the tailing zeros from the header\n    assembly {\n      mstore(header, lengthLength)\n    }\n    // Perform the elliptic curve recover operation\n    bytes32 check = keccak256(abi.encodePacked(header, message));\n\n    return ecrecover(check, v, r, s);\n  }\n}",
  "sourcePath": "/home/apoorv/projects/venlo/core/contracts/utils/Verifier.sol",
  "compiler": {
    "name": "solc",
    "version": "0.8.6+commit.11564f7e.Emscripten.clang"
  },
  "schemaVersion": "3.4.3",
  "updatedAt": "2022-05-11T15:59:00.013Z",
  "devdoc": {
    "kind": "dev",
    "methods": {},
    "version": 1
  },
  "userdoc": {
    "kind": "user",
    "methods": {},
    "version": 1
  }
}